{
  "contractName": "CallerBacker",
  "abi": [
    {
      "constant": true,
      "inputs": [
        {
          "name": "",
          "type": "bytes32"
        },
        {
          "name": "",
          "type": "address"
        },
        {
          "name": "",
          "type": "uint256"
        }
      ],
      "name": "callback_requests",
      "outputs": [
        {
          "name": "",
          "type": "uint256"
        }
      ],
      "payable": false,
      "stateMutability": "view",
      "type": "function"
    },
    {
      "anonymous": false,
      "inputs": [
        {
          "indexed": true,
          "name": "question_id",
          "type": "bytes32"
        },
        {
          "indexed": true,
          "name": "ctrct",
          "type": "address"
        },
        {
          "indexed": true,
          "name": "caller",
          "type": "address"
        },
        {
          "indexed": false,
          "name": "gas",
          "type": "uint256"
        },
        {
          "indexed": false,
          "name": "bounty",
          "type": "uint256"
        }
      ],
      "name": "LogFundCallbackRequest",
      "type": "event"
    },
    {
      "anonymous": false,
      "inputs": [
        {
          "indexed": true,
          "name": "question_id",
          "type": "bytes32"
        },
        {
          "indexed": true,
          "name": "ctrct",
          "type": "address"
        },
        {
          "indexed": true,
          "name": "caller",
          "type": "address"
        },
        {
          "indexed": false,
          "name": "gas",
          "type": "uint256"
        },
        {
          "indexed": false,
          "name": "bounty",
          "type": "uint256"
        },
        {
          "indexed": false,
          "name": "callback_result",
          "type": "bool"
        }
      ],
      "name": "LogSendCallback",
      "type": "event"
    },
    {
      "constant": false,
      "inputs": [
        {
          "name": "addr",
          "type": "address"
        }
      ],
      "name": "setRealityCheck",
      "outputs": [],
      "payable": false,
      "stateMutability": "nonpayable",
      "type": "function"
    },
    {
      "constant": false,
      "inputs": [
        {
          "name": "question_id",
          "type": "bytes32"
        },
        {
          "name": "client_ctrct",
          "type": "address"
        },
        {
          "name": "gas",
          "type": "uint256"
        }
      ],
      "name": "fundCallbackRequest",
      "outputs": [],
      "payable": true,
      "stateMutability": "payable",
      "type": "function"
    },
    {
      "constant": false,
      "inputs": [
        {
          "name": "question_id",
          "type": "bytes32"
        },
        {
          "name": "client_ctrct",
          "type": "address"
        },
        {
          "name": "gas",
          "type": "uint256"
        },
        {
          "name": "min_bounty",
          "type": "uint256"
        }
      ],
      "name": "sendCallback",
      "outputs": [
        {
          "name": "",
          "type": "bool"
        }
      ],
      "payable": false,
      "stateMutability": "nonpayable",
      "type": "function"
    },
    {
      "constant": false,
      "inputs": [
        {
          "name": "_value",
          "type": "uint256"
        }
      ],
      "name": "withdraw",
      "outputs": [
        {
          "name": "success",
          "type": "bool"
        }
      ],
      "payable": false,
      "stateMutability": "nonpayable",
      "type": "function"
    },
    {
      "constant": true,
      "inputs": [
        {
          "name": "_owner",
          "type": "address"
        }
      ],
      "name": "balanceOf",
      "outputs": [
        {
          "name": "balance",
          "type": "uint256"
        }
      ],
      "payable": false,
      "stateMutability": "view",
      "type": "function"
    }
  ],
  "bytecode": "0x608060405234801561001057600080fd5b50610553806100206000396000f3006080604052600436106100775763ffffffff7c01000000000000000000000000000000000000000000000000000000006000350416632e1a7d4d811461007c578063513a0d93146100a85780637003433a146100e157806370a0823114610104578063c47c743414610125578063e07422921461013f575b600080fd5b34801561008857600080fd5b50610094600435610169565b604080519115158252519081900360200190f35b3480156100b457600080fd5b506100cf600435600160a060020a03602435166044356101ed565b60408051918252519081900360200190f35b3480156100ed57600080fd5b50610102600160a060020a0360043516610210565b005b34801561011057600080fd5b506100cf600160a060020a0360043516610257565b610102600435600160a060020a0360243516604435610272565b34801561014b57600080fd5b50610094600435600160a060020a03602435166044356064356102ed565b33600090815260016020526040812054818382101561018757600080fd5b50336000908152600160205260409020548390038082116101a757600080fd5b336000818152600160205260408082208490555186156108fc0291879190818181858888f193505050501580156101e2573d6000803e3d6000fd5b506001949350505050565b600260209081526000938452604080852082529284528284209052825290205481565b60008054600160a060020a03161561022757600080fd5b506000805473ffffffffffffffffffffffffffffffffffffffff1916600160a060020a0392909216919091179055565b600160a060020a031660009081526001602052604090205490565b6040805182815234602082015281513392600160a060020a0386169287927f294696bce8fca279815945b0b6efdd09b6af0cd27050a7fccb2c3eaeb88a837a929181900390910190a46000928352600260209081526040808520600160a060020a039094168552928152828420918452529020805434019055565b6000848152600260209081526040808320600160a060020a0387168452825280832085845290915281205481808483101561032757600080fd5b855a101561033457600080fd5b60008054604080517fa462fb7b000000000000000000000000000000000000000000000000000000008152600481018c90529051600160a060020a039092169263a462fb7b926024808401936020939083900390910190829087803b15801561039c57600080fd5b505af11580156103b0573d6000803e3d6000fd5b505050506040513d60208110156103c657600080fd5b5051604080517f1d7dbb43000000000000000000000000000000000000000000000000000000008152600481018b9052602481018390529051919350600160a060020a03891691631d7dbb4391899160448083019260009291908290030181838887f193505050509050826001600033600160a060020a0316600160a060020a03168152602001908152602001600020600082825401925050819055506000600260008a60001916600019168152602001908152602001600020600089600160a060020a0316600160a060020a0316815260200190815260200160002060008881526020019081526020016000208190555033600160a060020a031687600160a060020a031689600019167fd8c8fcbf83edcee70231575f6cd1b9688ee5985d4b15fb644fda75b9141e1c0e8987866040518084815260200183815260200182151515158152602001935050505060405180910390a49796505050505050505600a165627a7a72305820a23f5e4b684ae3d885df6530d8324c14fe97f9dc2ef766b4854435b788ce7c410029",
  "source": "pragma solidity ^0.4.6;\n\n/*\nContract to accept requests for question callbacks.\nThis was originally bundled into the RealityCheck contract as this produces a slight gas saving:\n * About 20,000 gas for calling the contract\n * Potentially a little bit extra in the caller for managing 2 contract addresses (RealityCheck + CallerBacker)\n * Potentially a little bit extra when withdrawing if the same address has been used for answering and calling back\n*/\n\ncontract RealityCheckAPI {\n    function getFinalAnswer(bytes32 question_id) constant returns (bytes32); \n}\n\ncontract CallerBacker {\n\n    address realitycheck;\n    mapping (address => uint256) balances;\n\n    event LogFundCallbackRequest(\n        bytes32 indexed question_id,\n        address indexed ctrct,\n        address indexed caller,\n        uint256 gas,\n        uint256 bounty\n    );\n\n    event LogSendCallback(\n        bytes32 indexed question_id,\n        address indexed ctrct,\n        address indexed caller,\n        uint256 gas,\n        uint256 bounty,\n        bool callback_result\n    );\n\n    // question => ctrct => gas => bounty\n    mapping(bytes32=>mapping(address=>mapping(uint256=>uint256))) public callback_requests; \n\n    function setRealityCheck(address addr) {\n        address NULL_ADDRESS;\n        require(realitycheck == NULL_ADDRESS);\n        realitycheck = addr;\n    }\n\n    function fundCallbackRequest(bytes32 question_id, address client_ctrct, uint256 gas) payable {\n        LogFundCallbackRequest(question_id, client_ctrct, msg.sender, gas, msg.value);\n        callback_requests[question_id][client_ctrct][gas] += msg.value;\n    }\n\n    function sendCallback(bytes32 question_id, address client_ctrct, uint256 gas, uint256 min_bounty) returns (bool) {\n\n        uint256 bounty = callback_requests[question_id][client_ctrct][gas];\n\n        require(callback_requests[question_id][client_ctrct][gas] >= min_bounty);\n\n        require(msg.gas >= gas);\n\n        bytes32 best_answer = RealityCheckAPI(realitycheck).getFinalAnswer(question_id);      \n\n        // We call the callback with the low-level call() interface\n        // We don't care if it errors out or not:\n        // This is the responsibility of the requestor.\n\n        // Call signature argument hard-codes the result of:\n        // bytes4(bytes32(sha3(\"__realitycheck_callback(bytes32,bytes32)\"))\n        bool callback_result = client_ctrct.call.gas(gas)(0x1d7dbb43, question_id, best_answer); \n\n        balances[msg.sender] += bounty;\n        callback_requests[question_id][client_ctrct][gas] = 0;\n\n        LogSendCallback(question_id, client_ctrct, msg.sender, gas, bounty, callback_result);\n        return callback_result;\n\n    }\n\n    function withdraw(uint256 _value) returns (bool success) {\n        uint256 orig_bal = balances[msg.sender];\n        require(orig_bal >= _value);\n        uint256 new_bal = balances[msg.sender] - _value;\n\n        // Overflow shouldn't be possible here but check anyhow\n        require(orig_bal > new_bal);\n\n        balances[msg.sender] = new_bal;\n        msg.sender.transfer(_value);\n        return true;\n    }\n\n    function balanceOf(address _owner) constant returns (uint256 balance) {\n        return balances[_owner];\n    }\n\n} \n",
  "sourcePath": "/home/josojo/reality/realitio-contracts/truffle/contracts/CallerBacker.sol",
  "compiler": {
    "name": "solc",
    "version": "0.4.24+commit.e67f0147.Emscripten.clang"
  },
  "schemaVersion": "2.0.1",
  "updatedAt": "2018-10-07T13:57:20.727Z"
}