{
  "contractName": "ExplodingCallbackClient",
  "abi": [
    {
      "constant": false,
      "inputs": [
        {
          "name": "question_id",
          "type": "bytes32"
        },
        {
          "name": "question_answer",
          "type": "bytes32"
        }
      ],
      "name": "__realitycheck_callback",
      "outputs": [],
      "payable": false,
      "stateMutability": "nonpayable",
      "type": "function"
    }
  ],
  "bytecode": "0x6080604052348015600f57600080fd5b5060898061001e6000396000f300608060405260043610603e5763ffffffff7c01000000000000000000000000000000000000000000000000000000006000350416631d7dbb4381146043575b600080fd5b348015604e57600080fd5b50605b600435602435603e565b0000a165627a7a723058209045ca604e8faff5692efc70b80b9bfbe60e7b7e274d74359bb3a60690f411da0029",
  "source": "pragma solidity ^0.4.6;\n\ncontract ExplodingCallbackClient {\n\n    function __realitycheck_callback(bytes32 question_id, bytes32 question_answer) {\n        throw;\n    }\n\n}\n",
  "sourcePath": "/home/josojo/reality/realitio-contracts/truffle/contracts/ExplodingCallbackClient.sol",
  "compiler": {
    "name": "solc",
    "version": "0.4.24+commit.e67f0147.Emscripten.clang"
  },
  "schemaVersion": "2.0.1",
  "updatedAt": "2018-10-07T13:57:20.726Z"
}