{
  "contractName": "FireInsuranceExample",
  "abi": [
    {
      "constant": false,
      "inputs": [],
      "name": "withdraw",
      "outputs": [],
      "payable": false,
      "stateMutability": "nonpayable",
      "type": "function"
    },
    {
      "constant": true,
      "inputs": [
        {
          "name": "",
          "type": "address"
        }
      ],
      "name": "balanceOf",
      "outputs": [
        {
          "name": "",
          "type": "uint256"
        }
      ],
      "payable": false,
      "stateMutability": "view",
      "type": "function"
    },
    {
      "anonymous": false,
      "inputs": [
        {
          "indexed": true,
          "name": "user",
          "type": "address"
        },
        {
          "indexed": false,
          "name": "amount",
          "type": "uint256"
        }
      ],
      "name": "LogWithdraw",
      "type": "event"
    },
    {
      "constant": false,
      "inputs": [
        {
          "name": "realitycheck",
          "type": "address"
        },
        {
          "name": "content_hash",
          "type": "bytes32"
        },
        {
          "name": "arbitrator",
          "type": "address"
        },
        {
          "name": "min_timeout",
          "type": "uint256"
        },
        {
          "name": "min_bond",
          "type": "uint256"
        },
        {
          "name": "coverage_period",
          "type": "uint256"
        },
        {
          "name": "face_value",
          "type": "uint256"
        }
      ],
      "name": "requestPolicy",
      "outputs": [
        {
          "name": "",
          "type": "bytes32"
        }
      ],
      "payable": true,
      "stateMutability": "payable",
      "type": "function"
    },
    {
      "constant": false,
      "inputs": [
        {
          "name": "policy_id",
          "type": "bytes32"
        }
      ],
      "name": "providePolicy",
      "outputs": [],
      "payable": true,
      "stateMutability": "payable",
      "type": "function"
    },
    {
      "constant": false,
      "inputs": [
        {
          "name": "policy_id",
          "type": "bytes32"
        }
      ],
      "name": "cancelPolicyRequest",
      "outputs": [],
      "payable": false,
      "stateMutability": "nonpayable",
      "type": "function"
    },
    {
      "constant": false,
      "inputs": [
        {
          "name": "policy_id",
          "type": "bytes32"
        },
        {
          "name": "question_id",
          "type": "bytes32"
        }
      ],
      "name": "claim",
      "outputs": [],
      "payable": false,
      "stateMutability": "nonpayable",
      "type": "function"
    },
    {
      "constant": false,
      "inputs": [
        {
          "name": "policy_id",
          "type": "bytes32"
        }
      ],
      "name": "complete",
      "outputs": [],
      "payable": false,
      "stateMutability": "nonpayable",
      "type": "function"
    }
  ],
  "bytecode": "0x608060405234801561001057600080fd5b506107f2806100206000396000f3006080604052600436106100825763ffffffff7c01000000000000000000000000000000000000000000000000000000006000350416632d5ea57281146100875780633ccfd60b146100c357806358462f2d146100da57806370a08231146100e557806383ccfb841461010657806384cc9dfb1461011e578063fef60bba14610139575b600080fd5b6100b1600160a060020a03600435811690602435906044351660643560843560a43560c435610151565b60408051918252519081900360200190f35b3480156100cf57600080fd5b506100d86102bd565b005b6100d8600435610338565b3480156100f157600080fd5b506100b1600160a060020a03600435166103ab565b34801561011257600080fd5b506100d86004356103bd565b34801561012a57600080fd5b506100d8600435602435610515565b34801561014557600080fd5b506100d8600435610695565b604080516c01000000000000000000000000600160a060020a03808b168281028452601484018b9052818a168084026034860152604885018a90526068850189905233938402608886015234609c860181905260bc860189905260dc860188905286519586900360fc0186206101608701885292865260208681018e8152878901938452606088018d8152608089018d815260a08a0198895260c08a018d815260e08b019586526101008b018d815260006101208d018181526101408e018281528b83526001988990529e9091209c518d54908c1673ffffffffffffffffffffffffffffffffffffffff19918216178e559551968d0196909655965160028c018054918b16918616919091179055915160038b01555160048a015596516005890180549188169183169190911790559551600688015590516007870155905160088601555160098501559351600a90930180549390911692909116919091179055979650505050505050565b33600081815260208190526040808220805490839055905190929183156108fc02918491818181858888f193505050501580156102fe573d6000803e3d6000fd5b5060408051828152905133917f4ce7033d118120e254016dccf195288400b28fc8936425acd5f17ce2df3ab708919081900360200190a250565b6000818152600160205260408120600701541161035457600080fd5b6000818152600160205260409020600801541561037057600080fd5b60008181526001602052604090206008015434101561038e57600080fd5b600090815260016020526040902034600882015542600990910155565b60006020819052908152604090205481565b60008181526001602052604081206006810154600990910154829182910142116103e657600080fd5b505050600081815260016020526040812060088101546007820154600a909201549092600160a060020a0390911690831161042057600080fd5b6000821161042d57600080fd5b600160a060020a038116151561043f57fe5b600160a060020a03811660009081526020819052604090205461047a90849061046e908563ffffffff6107b016565b9063ffffffff6107b016565b600160a060020a0390911660009081526020818152604080832093909355948152600194859052908120805473ffffffffffffffffffffffffffffffffffffffff199081168255948101829055600281018054861690556003810182905560048101829055600581018054861690556006810182905560078101829055600881018290556009810191909155600a0180549093169092555050565b6000828152600160205260408120600801548190811061053457600080fd5b600084815260016020526040902060068101546009909101540142111561055a57600080fd5b60008481526001602081815260408084208054938101546002820154600383015460049384015485517f79c3fdaf0000000000000000000000000000000000000000000000000000000081529485018c90526024850193909352600160a060020a03918216604485015260648401526084830191909152915191909316936379c3fdaf9360a4808201949392918390030190829087803b1580156105fd57600080fd5b505af1158015610611573d6000803e3d6000fd5b505050506040513d602081101561062757600080fd5b505191506001821461063857600080fd5b50600083815260016020526040902060050154600160a060020a031680151561065d57fe5b600084815260016020908152604080832060080154600160a060020a0385168452918390529091205461047a9163ffffffff6107b016565b600081815260016020526040812060070154116106b157600080fd5b600081815260016020526040902060080154156106cd57600080fd5b600081815260016020526040902060050154600160a060020a031633146106f357600080fd5b60008181526001602090815260408083206007015433845291839052909120546107229163ffffffff6107b016565b3360009081526020818152604080832093909355928152600192839052908120805473ffffffffffffffffffffffffffffffffffffffff199081168255928101829055600281018054841690556003810182905560048101829055600581018054841690556006810182905560078101829055600881018290556009810191909155600a0180549091169055565b6000828201838110156107bf57fe5b93925050505600a165627a7a723058209cea98347850699ce06078c1f5daa3971178a0af34e8c9891e4486e9b96eb0310029",
  "source": "pragma solidity ^0.4.6;\n\nimport './SafeMath.sol';\nimport './BalanceHolder.sol';\n\ncontract RealityCheckAPI {\n    function getFinalAnswerIfMatches(bytes32 question_id, bytes32 content_hash, address arbitrator, uint256 min_timeout, uint256 min_bond) public returns (bytes32);\n}\n\ncontract FireInsuranceExample is BalanceHolder {\n\n    using SafeMath for uint256;\n\n    struct Policy {\n        address realitycheck;\n        bytes32 content_hash; \n        address arbitrator;\n        uint256 min_timeout; \n        uint256 min_bond;\n        address insuree;\n        uint256 coverage_period;\n        uint256 premium;\n        uint256 face_value;\n        uint256 coverage_start;\n        address insurer;\n    }\n    mapping(bytes32 => Policy) policies;\n\n    function requestPolicy(\n        address realitycheck, \n        bytes32 content_hash, \n        address arbitrator, \n        uint256 min_timeout, \n        uint256 min_bond,\n        uint256 coverage_period,\n        uint256 face_value\n    ) \n    payable public returns (bytes32) {\n        bytes32 policy_id = keccak256(realitycheck, content_hash, arbitrator, min_timeout, min_bond, msg.sender, msg.value, coverage_period, face_value);\n        policies[policy_id] = Policy(\n            realitycheck, \n            content_hash, \n            arbitrator, \n            min_timeout, \n            min_bond,\n            msg.sender,\n            coverage_period,\n            msg.value,\n            face_value,\n            0,\n            0x0\n        );\n        return policy_id;\n    }\n\n    function providePolicy(bytes32 policy_id) \n    payable public\n    {\n        require(policies[policy_id].premium > 0); \n        require(policies[policy_id].face_value == 0); \n        require(msg.value >= policies[policy_id].face_value);\n        policies[policy_id].face_value = msg.value;\n        policies[policy_id].coverage_start = now;\n    }\n\n    function cancelPolicyRequest(bytes32 policy_id) \n    public {\n        require(policies[policy_id].premium > 0);\n        require(policies[policy_id].face_value == 0);\n        require(policies[policy_id].insuree == msg.sender);\n        balanceOf[msg.sender] = balanceOf[msg.sender].add(policies[policy_id].premium);\n        delete policies[policy_id];\n    }\n\n    function claim(bytes32 policy_id, bytes32 question_id) \n    public {\n        require(policies[policy_id].face_value > 0);\n        require(now <= policies[policy_id].coverage_start + policies[policy_id].coverage_period);\n        bytes32 response = RealityCheckAPI(policies[policy_id].realitycheck).getFinalAnswerIfMatches(\n            question_id,\n            policies[policy_id].content_hash,\n            policies[policy_id].arbitrator,\n            policies[policy_id].min_timeout,\n            policies[policy_id].min_bond\n        );\n        require(uint256(response) == 1);\n        address insuree = policies[policy_id].insuree;\n        assert(insuree != 0x0);\n        balanceOf[insuree] = balanceOf[insuree].add(policies[policy_id].face_value);\n        delete policies[policy_id];\n    }\n\n    function complete(bytes32 policy_id) \n    public {\n        require(now > policies[policy_id].coverage_start + policies[policy_id].coverage_period);\n        uint256 face_value = policies[policy_id].face_value;\n        uint256 premium = policies[policy_id].premium;\n        address insurer = policies[policy_id].insurer;\n        require(face_value > 0);\n        require(premium > 0);\n        assert(insurer != 0x0);\n        balanceOf[insurer] = balanceOf[insurer].add(premium).add(face_value);\n        delete policies[policy_id];\n    }\n\n}\n",
  "sourcePath": "/home/josojo/reality/realitio-contracts/truffle/contracts/FireInsuranceExample.sol",
  "compiler": {
    "name": "solc",
    "version": "0.4.24+commit.e67f0147.Emscripten.clang"
  },
  "schemaVersion": "2.0.1",
  "updatedAt": "2018-10-07T13:57:20.735Z"
}