{
  "contractName": "RealityCheck",
  "abi": [
    {
      "constant": false,
      "inputs": [],
      "name": "withdraw",
      "outputs": [],
      "payable": false,
      "stateMutability": "nonpayable",
      "type": "function"
    },
    {
      "constant": true,
      "inputs": [
        {
          "name": "",
          "type": "uint256"
        }
      ],
      "name": "template_hashes",
      "outputs": [
        {
          "name": "",
          "type": "bytes32"
        }
      ],
      "payable": false,
      "stateMutability": "view",
      "type": "function"
    },
    {
      "constant": true,
      "inputs": [
        {
          "name": "",
          "type": "address"
        }
      ],
      "name": "arbitrator_question_fees",
      "outputs": [
        {
          "name": "",
          "type": "uint256"
        }
      ],
      "payable": false,
      "stateMutability": "view",
      "type": "function"
    },
    {
      "constant": true,
      "inputs": [
        {
          "name": "",
          "type": "address"
        }
      ],
      "name": "balanceOf",
      "outputs": [
        {
          "name": "",
          "type": "uint256"
        }
      ],
      "payable": false,
      "stateMutability": "view",
      "type": "function"
    },
    {
      "constant": true,
      "inputs": [
        {
          "name": "",
          "type": "bytes32"
        }
      ],
      "name": "commitments",
      "outputs": [
        {
          "name": "reveal_ts",
          "type": "uint32"
        },
        {
          "name": "is_revealed",
          "type": "bool"
        },
        {
          "name": "revealed_answer",
          "type": "bytes32"
        }
      ],
      "payable": false,
      "stateMutability": "view",
      "type": "function"
    },
    {
      "constant": true,
      "inputs": [
        {
          "name": "",
          "type": "bytes32"
        }
      ],
      "name": "questions",
      "outputs": [
        {
          "name": "content_hash",
          "type": "bytes32"
        },
        {
          "name": "arbitrator",
          "type": "address"
        },
        {
          "name": "opening_ts",
          "type": "uint32"
        },
        {
          "name": "timeout",
          "type": "uint32"
        },
        {
          "name": "finalize_ts",
          "type": "uint32"
        },
        {
          "name": "is_pending_arbitration",
          "type": "bool"
        },
        {
          "name": "bounty",
          "type": "uint256"
        },
        {
          "name": "best_answer",
          "type": "bytes32"
        },
        {
          "name": "history_hash",
          "type": "bytes32"
        },
        {
          "name": "bond",
          "type": "uint256"
        }
      ],
      "payable": false,
      "stateMutability": "view",
      "type": "function"
    },
    {
      "constant": true,
      "inputs": [
        {
          "name": "",
          "type": "uint256"
        }
      ],
      "name": "templates",
      "outputs": [
        {
          "name": "",
          "type": "uint256"
        }
      ],
      "payable": false,
      "stateMutability": "view",
      "type": "function"
    },
    {
      "inputs": [],
      "payable": false,
      "stateMutability": "nonpayable",
      "type": "constructor"
    },
    {
      "anonymous": false,
      "inputs": [
        {
          "indexed": false,
          "name": "arbitrator",
          "type": "address"
        },
        {
          "indexed": false,
          "name": "amount",
          "type": "uint256"
        }
      ],
      "name": "LogSetQuestionFee",
      "type": "event"
    },
    {
      "anonymous": false,
      "inputs": [
        {
          "indexed": true,
          "name": "template_id",
          "type": "uint256"
        },
        {
          "indexed": true,
          "name": "user",
          "type": "address"
        },
        {
          "indexed": false,
          "name": "question_text",
          "type": "string"
        }
      ],
      "name": "LogNewTemplate",
      "type": "event"
    },
    {
      "anonymous": false,
      "inputs": [
        {
          "indexed": true,
          "name": "question_id",
          "type": "bytes32"
        },
        {
          "indexed": true,
          "name": "user",
          "type": "address"
        },
        {
          "indexed": false,
          "name": "template_id",
          "type": "uint256"
        },
        {
          "indexed": false,
          "name": "question",
          "type": "string"
        },
        {
          "indexed": true,
          "name": "content_hash",
          "type": "bytes32"
        },
        {
          "indexed": false,
          "name": "arbitrator",
          "type": "address"
        },
        {
          "indexed": false,
          "name": "timeout",
          "type": "uint32"
        },
        {
          "indexed": false,
          "name": "opening_ts",
          "type": "uint32"
        },
        {
          "indexed": false,
          "name": "nonce",
          "type": "uint256"
        },
        {
          "indexed": false,
          "name": "created",
          "type": "uint256"
        }
      ],
      "name": "LogNewQuestion",
      "type": "event"
    },
    {
      "anonymous": false,
      "inputs": [
        {
          "indexed": true,
          "name": "question_id",
          "type": "bytes32"
        },
        {
          "indexed": false,
          "name": "bounty_added",
          "type": "uint256"
        },
        {
          "indexed": false,
          "name": "bounty",
          "type": "uint256"
        },
        {
          "indexed": true,
          "name": "user",
          "type": "address"
        }
      ],
      "name": "LogFundAnswerBounty",
      "type": "event"
    },
    {
      "anonymous": false,
      "inputs": [
        {
          "indexed": false,
          "name": "answer",
          "type": "bytes32"
        },
        {
          "indexed": true,
          "name": "question_id",
          "type": "bytes32"
        },
        {
          "indexed": false,
          "name": "history_hash",
          "type": "bytes32"
        },
        {
          "indexed": true,
          "name": "user",
          "type": "address"
        },
        {
          "indexed": false,
          "name": "bond",
          "type": "uint256"
        },
        {
          "indexed": false,
          "name": "ts",
          "type": "uint256"
        },
        {
          "indexed": false,
          "name": "is_commitment",
          "type": "bool"
        }
      ],
      "name": "LogNewAnswer",
      "type": "event"
    },
    {
      "anonymous": false,
      "inputs": [
        {
          "indexed": true,
          "name": "question_id",
          "type": "bytes32"
        },
        {
          "indexed": true,
          "name": "user",
          "type": "address"
        },
        {
          "indexed": true,
          "name": "answer_hash",
          "type": "bytes32"
        },
        {
          "indexed": false,
          "name": "answer",
          "type": "bytes32"
        },
        {
          "indexed": false,
          "name": "nonce",
          "type": "uint256"
        },
        {
          "indexed": false,
          "name": "bond",
          "type": "uint256"
        }
      ],
      "name": "LogAnswerReveal",
      "type": "event"
    },
    {
      "anonymous": false,
      "inputs": [
        {
          "indexed": true,
          "name": "question_id",
          "type": "bytes32"
        },
        {
          "indexed": true,
          "name": "user",
          "type": "address"
        }
      ],
      "name": "LogNotifyOfArbitrationRequest",
      "type": "event"
    },
    {
      "anonymous": false,
      "inputs": [
        {
          "indexed": true,
          "name": "question_id",
          "type": "bytes32"
        },
        {
          "indexed": true,
          "name": "answer",
          "type": "bytes32"
        }
      ],
      "name": "LogFinalize",
      "type": "event"
    },
    {
      "anonymous": false,
      "inputs": [
        {
          "indexed": true,
          "name": "question_id",
          "type": "bytes32"
        },
        {
          "indexed": true,
          "name": "user",
          "type": "address"
        },
        {
          "indexed": false,
          "name": "amount",
          "type": "uint256"
        }
      ],
      "name": "LogClaim",
      "type": "event"
    },
    {
      "anonymous": false,
      "inputs": [
        {
          "indexed": true,
          "name": "user",
          "type": "address"
        },
        {
          "indexed": false,
          "name": "amount",
          "type": "uint256"
        }
      ],
      "name": "LogWithdraw",
      "type": "event"
    },
    {
      "constant": false,
      "inputs": [
        {
          "name": "fee",
          "type": "uint256"
        }
      ],
      "name": "setQuestionFee",
      "outputs": [],
      "payable": false,
      "stateMutability": "nonpayable",
      "type": "function"
    },
    {
      "constant": false,
      "inputs": [
        {
          "name": "content",
          "type": "string"
        }
      ],
      "name": "createTemplate",
      "outputs": [
        {
          "name": "",
          "type": "uint256"
        }
      ],
      "payable": false,
      "stateMutability": "nonpayable",
      "type": "function"
    },
    {
      "constant": false,
      "inputs": [
        {
          "name": "content",
          "type": "string"
        },
        {
          "name": "question",
          "type": "string"
        },
        {
          "name": "arbitrator",
          "type": "address"
        },
        {
          "name": "timeout",
          "type": "uint32"
        },
        {
          "name": "opening_ts",
          "type": "uint32"
        },
        {
          "name": "nonce",
          "type": "uint256"
        }
      ],
      "name": "createTemplateAndAskQuestion",
      "outputs": [
        {
          "name": "",
          "type": "bytes32"
        }
      ],
      "payable": true,
      "stateMutability": "payable",
      "type": "function"
    },
    {
      "constant": false,
      "inputs": [
        {
          "name": "template_id",
          "type": "uint256"
        },
        {
          "name": "question",
          "type": "string"
        },
        {
          "name": "arbitrator",
          "type": "address"
        },
        {
          "name": "timeout",
          "type": "uint32"
        },
        {
          "name": "opening_ts",
          "type": "uint32"
        },
        {
          "name": "nonce",
          "type": "uint256"
        }
      ],
      "name": "askQuestion",
      "outputs": [
        {
          "name": "",
          "type": "bytes32"
        }
      ],
      "payable": true,
      "stateMutability": "payable",
      "type": "function"
    },
    {
      "constant": false,
      "inputs": [
        {
          "name": "question_id",
          "type": "bytes32"
        }
      ],
      "name": "fundAnswerBounty",
      "outputs": [],
      "payable": true,
      "stateMutability": "payable",
      "type": "function"
    },
    {
      "constant": false,
      "inputs": [
        {
          "name": "question_id",
          "type": "bytes32"
        },
        {
          "name": "answer",
          "type": "bytes32"
        },
        {
          "name": "max_previous",
          "type": "uint256"
        }
      ],
      "name": "submitAnswer",
      "outputs": [],
      "payable": true,
      "stateMutability": "payable",
      "type": "function"
    },
    {
      "constant": false,
      "inputs": [
        {
          "name": "question_id",
          "type": "bytes32"
        },
        {
          "name": "answer_hash",
          "type": "bytes32"
        },
        {
          "name": "max_previous",
          "type": "uint256"
        },
        {
          "name": "_answerer",
          "type": "address"
        }
      ],
      "name": "submitAnswerCommitment",
      "outputs": [],
      "payable": true,
      "stateMutability": "payable",
      "type": "function"
    },
    {
      "constant": false,
      "inputs": [
        {
          "name": "question_id",
          "type": "bytes32"
        },
        {
          "name": "answer",
          "type": "bytes32"
        },
        {
          "name": "nonce",
          "type": "uint256"
        },
        {
          "name": "bond",
          "type": "uint256"
        }
      ],
      "name": "submitAnswerReveal",
      "outputs": [],
      "payable": false,
      "stateMutability": "nonpayable",
      "type": "function"
    },
    {
      "constant": false,
      "inputs": [
        {
          "name": "question_id",
          "type": "bytes32"
        },
        {
          "name": "requester",
          "type": "address"
        },
        {
          "name": "max_previous",
          "type": "uint256"
        }
      ],
      "name": "notifyOfArbitrationRequest",
      "outputs": [],
      "payable": false,
      "stateMutability": "nonpayable",
      "type": "function"
    },
    {
      "constant": false,
      "inputs": [
        {
          "name": "question_id",
          "type": "bytes32"
        },
        {
          "name": "answer",
          "type": "bytes32"
        },
        {
          "name": "answerer",
          "type": "address"
        }
      ],
      "name": "submitAnswerByArbitrator",
      "outputs": [],
      "payable": false,
      "stateMutability": "nonpayable",
      "type": "function"
    },
    {
      "constant": true,
      "inputs": [
        {
          "name": "question_id",
          "type": "bytes32"
        }
      ],
      "name": "isFinalized",
      "outputs": [
        {
          "name": "",
          "type": "bool"
        }
      ],
      "payable": false,
      "stateMutability": "view",
      "type": "function"
    },
    {
      "constant": true,
      "inputs": [
        {
          "name": "question_id",
          "type": "bytes32"
        }
      ],
      "name": "getFinalAnswer",
      "outputs": [
        {
          "name": "",
          "type": "bytes32"
        }
      ],
      "payable": false,
      "stateMutability": "view",
      "type": "function"
    },
    {
      "constant": true,
      "inputs": [
        {
          "name": "question_id",
          "type": "bytes32"
        },
        {
          "name": "content_hash",
          "type": "bytes32"
        },
        {
          "name": "arbitrator",
          "type": "address"
        },
        {
          "name": "min_timeout",
          "type": "uint32"
        },
        {
          "name": "min_bond",
          "type": "uint256"
        }
      ],
      "name": "getFinalAnswerIfMatches",
      "outputs": [
        {
          "name": "",
          "type": "bytes32"
        }
      ],
      "payable": false,
      "stateMutability": "view",
      "type": "function"
    },
    {
      "constant": false,
      "inputs": [
        {
          "name": "question_id",
          "type": "bytes32"
        },
        {
          "name": "history_hashes",
          "type": "bytes32[]"
        },
        {
          "name": "addrs",
          "type": "address[]"
        },
        {
          "name": "bonds",
          "type": "uint256[]"
        },
        {
          "name": "answers",
          "type": "bytes32[]"
        }
      ],
      "name": "claimWinnings",
      "outputs": [],
      "payable": false,
      "stateMutability": "nonpayable",
      "type": "function"
    },
    {
      "constant": false,
      "inputs": [
        {
          "name": "question_ids",
          "type": "bytes32[]"
        },
        {
          "name": "lengths",
          "type": "uint256[]"
        },
        {
          "name": "hist_hashes",
          "type": "bytes32[]"
        },
        {
          "name": "addrs",
          "type": "address[]"
        },
        {
          "name": "bonds",
          "type": "uint256[]"
        },
        {
          "name": "answers",
          "type": "bytes32[]"
        }
      ],
      "name": "claimMultipleAndWithdrawBalance",
      "outputs": [],
      "payable": false,
      "stateMutability": "nonpayable",
      "type": "function"
    }
  ],
  "bytecode": "0x608060405260006001553480156200001657600080fd5b506200008d606060405190810160405280603181526020017f7b227469746c65223a20222573222c202274797065223a2022626f6f6c222c2081526020017f2263617465676f7279223a20222573227d000000000000000000000000000000815250620002e2640100000000026401000000009004565b506200012a608060405190810160405280604181526020017f7b227469746c65223a20222573222c202274797065223a202275696e74222c2081526020017f22646563696d616c73223a2031382c202263617465676f7279223a202225732281526020017f7d00000000000000000000000000000000000000000000000000000000000000815250620002e2640100000000026401000000009004565b50620001c7608060405190810160405280604c81526020017f7b227469746c65223a20222573222c202274797065223a202273696e676c652d81526020017f73656c656374222c20226f7574636f6d6573223a205b25735d2c20226361746581526020017f676f7279223a20222573227d0000000000000000000000000000000000000000815250620002e2640100000000026401000000009004565b5062000264608060405190810160405280604e81526020017f7b227469746c65223a20222573222c202274797065223a20226d756c7469706c81526020017f652d73656c656374222c20226f7574636f6d6573223a205b25735d2c2022636181526020017f7465676f7279223a20222573227d000000000000000000000000000000000000815250620002e2640100000000026401000000009004565b50620002db606060405190810160405280603581526020017f7b227469746c65223a20222573222c202274797065223a20226461746574696d81526020017f65222c202263617465676f7279223a20222573227d0000000000000000000000815250620002e2640100000000026401000000009004565b5062000438565b600154600081815260026020908152604080832043905551845192939285928291908401908083835b602083106200032c5780518252601f1990920191602091820191016200030b565b51815160209384036101000a6000190180199092169116179052604080519290940182900382206000888152600383528581209190915581835289518383015289513397508896507fb87fb721c0a557bb8dff89a86796466931d82ba530a66a239263eb8735ade2e4958b955084939084019290860191908190849084905b83811015620003c5578181015183820152602001620003ab565b50505050905090810190601f168015620003f35780820380516001836020036101000a031916815260200191505b509250505060405180910390a36200041b81600164010000000062001cc66200042482021704565b60015592915050565b818101828110156200043257fe5b92915050565b61220a80620004486000396000f30060806040526004361061010e5763ffffffff60e060020a6000350416631101a0fd811461011357806312a203c31461021a57806328828b1e1461025f5780633ccfd60b146103d15780634dc266b4146103e65780634df6ca2a146104075780634e60f8831461041f57806359245ff3146104375780636fa427421461044257806370a0823114610463578063762c38fd1461048457806377f325df146104fa5780637f8d429e1461050b578063839df9451461053757806383bf46091461057457806395addb90146105cd578063a1130d0414610649578063a462fb7b146106f8578063bc52565214610710578063d7cff98614610728578063f6a94ecb14610745578063fe92049d1461076c575b600080fd5b34801561011f57600080fd5b5060408051602060046024803582810135848102808701860190975280865261021896843596369660449591949091019291829185019084908082843750506040805187358901803560208181028481018201909552818452989b9a998901989297509082019550935083925085019084908082843750506040805187358901803560208181028481018201909552818452989b9a998901989297509082019550935083925085019084908082843750506040805187358901803560208181028481018201909552818452989b9a9989019892975090820195509350839250850190849080828437509497506107939650505050505050565b005b34801561022657600080fd5b5061024d600435602435600160a060020a036044351663ffffffff60643516608435610a07565b60408051918252519081900360200190f35b34801561026b57600080fd5b506040805160206004803580820135838102808601850190965280855261021895369593946024949385019291829185019084908082843750506040805187358901803560208181028481018201909552818452989b9a998901989297509082019550935083925085019084908082843750506040805187358901803560208181028481018201909552818452989b9a998901989297509082019550935083925085019084908082843750506040805187358901803560208181028481018201909552818452989b9a998901989297509082019550935083925085019084908082843750506040805187358901803560208181028481018201909552818452989b9a998901989297509082019550935083925085019084908082843750506040805187358901803560208181028481018201909552818452989b9a998901989297509082019550935083925085019084908082843750949750610acd9650505050505050565b3480156103dd57600080fd5b50610218610ce1565b3480156103f257600080fd5b50610218600435602435604435606435610d5c565b34801561041357600080fd5b50610218600435610f54565b34801561042b57600080fd5b5061024d600435610fa3565b610218600435610fb5565b34801561044e57600080fd5b5061024d600160a060020a0360043516611106565b34801561046f57600080fd5b5061024d600160a060020a0360043516611118565b60408051602060046024803582810135601f810185900485028601850190965285855261024d95833595369560449491939091019190819084018382808284375094975050508335600160a060020a03169450505050602081013563ffffffff908116916040810135909116906060013561112a565b61021860043560243560443561137d565b34801561051757600080fd5b506105236004356114fe565b604080519115158252519081900360200190f35b34801561054357600080fd5b5061054f60043561155b565b6040805163ffffffff9094168452911515602084015282820152519081900360600190f35b34801561058057600080fd5b506040805160206004803580820135601f810184900484028501840190955284845261024d9436949293602493928401919081908401838280828437509497506115889650505050505050565b3480156105d957600080fd5b506105e56004356116bb565b604080519a8b52600160a060020a0390991660208b015263ffffffff9788168a8a015295871660608a015293909516608088015290151560a087015260c086015260e085019290925261010084019190915261012083015251908190036101400190f35b6040805160206004803580820135601f810184900484028501840190955284845261024d94369492936024939284019190819084018382808284375050604080516020601f89358b018035918201839004830284018301909452808352979a99988101979196509182019450925082915084018382808284375094975050508335600160a060020a03169450505050602081013563ffffffff9081169160408101359091169060600135611726565b34801561070457600080fd5b5061024d60043561174e565b34801561071c57600080fd5b5061024d60043561177d565b610218600435602435604435600160a060020a036064351661178f565b34801561075157600080fd5b50610218600435600160a060020a03602435166044356119a5565b34801561077857600080fd5b50610218600435602435600160a060020a0360443516611b26565b60008060008060008060008b6107a8816114fe565b15156107b357600080fd5b8b516000106107c157600080fd5b60008d815260056020818152604080842080546001820154600290920154600494859052928620948501549490930154600160a060020a039093169c509a509850909650945092505b8b5183101561092a5761087c858d8581518110151561082557fe5b906020019060200201518b8681518110151561083d57fe5b906020019060200201518d8781518110151561085557fe5b906020019060200201518f8881518110151561086d57fe5b90602001906020020151611bf9565b915061088e868863ffffffff611cc616565b95506108e58d85888b8f888151811015156108a557fe5b906020019060200201518f898151811015156108bd57fe5b906020019060200201518f8a8151811015156108d557fe5b9060200190602002015189611cd9565b8b519099509096508a90849081106108f957fe5b9060200190602002015196508b8381518110151561091357fe5b60209081029091010151945060019092019161080a565b841561099557600160a060020a0388161561094f5761094a8d8988611e09565b600095505b60008d8152600560205260409020805473ffffffffffffffffffffffffffffffffffffffff1916600160a060020a038a16178155600181018890556002018690556109e4565b6109af8d896109aa898b63ffffffff611cc616565b611e09565b60008d8152600560205260408120805473ffffffffffffffffffffffffffffffffffffffff1916815560018101829055600201555b5050506000998a5250600460205260409098206005019790975550505050505050565b600085610a13816114fe565b1515610a1e57600080fd5b6000878152600460205260409020548614610a3857600080fd5b600087815260046020526040902060010154600160a060020a03868116911614610a6157600080fd5b60008781526004602052604090206001015463ffffffff60c060020a90910481169085161115610a9057600080fd5b600087815260046020526040902060060154831115610aae57600080fd5b6000878152600460208190526040909120015491505095945050505050565b60008080806060808080845b8e51891015610cc8578e89815181101515610af057fe5b9060200190602002015196508d89815181101515610b0a57fe5b90602001906020020151955085604051908082528060200260200182016040528015610b40578160200160208202803883390190505b50945085604051908082528060200260200182016040528015610b6d578160200160208202803883390190505b50935085604051908082528060200260200182016040528015610b9a578160200160208202803883390190505b50925085604051908082528060200260200182016040528015610bc7578160200160208202803883390190505b509150600090505b85811015610cb0578c88815181101515610be557fe5b906020019060200201518582815181101515610bfd57fe5b602090810290910101528b518c9089908110610c1557fe5b906020019060200201518482815181101515610c2d57fe5b600160a060020a039092166020928302909101909101528a518b9089908110610c5257fe5b906020019060200201518382815181101515610c6a57fe5b6020908102909101015289518a9089908110610c8257fe5b906020019060200201518282815181101515610c9a57fe5b6020908102909101015260019788019701610bcf565b610cbd8786868686610793565b600190980197610ad9565b610cd0610ce1565b505050505050505050505050505050565b33600081815260208190526040808220805490839055905190929183156108fc02918491818181858888f19350505050158015610d22573d6000803e3d6000fd5b5060408051828152905133917f4ce7033d118120e254016dccf195288400b28fc8936425acd5f17ce2df3ab708919081900360200190a250565b600084815260046020526040812060010154819086908290819060c060020a900463ffffffff168110610d8e57600080fd5b60008381526004602052604090206001015460e060020a900463ffffffff169150811580610dc757504263ffffffff168263ffffffff16115b1515610dd257600080fd5b5060008281526004602052604090206001015460a060020a900463ffffffff16801580610e0b57504263ffffffff168163ffffffff1611155b1515610e1657600080fd5b6040805189815260208082018a9052825191829003830182208c83528282018190528284018a9052835192839003606001909220600081815260069092529290205490965090945060ff6401000000009091041615610e7457600080fd5b60008481526006602052604090205463ffffffff428116911611610e9757600080fd5b6000848152600660208181526040808420600181018d9055805464ff0000000019166401000000001790558c845260049091529091200154861415610f0257600089815260046020526040902060010154610f02908a908a9060c060020a900463ffffffff16611e8a565b60408051898152602081018990528082018890529051869133918c917fa7b2d313bc7a062e30b2c3b811aa4c9faf09755a6b4ea3bf42deff920944332f919081900360600190a4505050505050505050565b336000818152600760209081526040918290208490558151928352820183905280517fdca703d022171824d3d639b33c1525fd2338120b4cfb89507c0b59596893acda9281900390910190a150565b60036020526000908152604090205481565b600081815260046020526040812060010154829190819060c060020a900463ffffffff168110610fe457600080fd5b60008381526004602052604090206002015460ff161561100357600080fd5b60008381526004602052604090206001015460e060020a900463ffffffff16915081158061103c57504263ffffffff168263ffffffff16115b151561104757600080fd5b5060008281526004602052604090206001015460a060020a900463ffffffff1680158061108057504263ffffffff168163ffffffff1611155b151561108b57600080fd5b6000848152600460205260409020600301546110ad903463ffffffff611cc616565b6000858152600460209081526040918290206003018390558151348152908101929092528051339287927f54d68405b79f2aa4fd4e8db7b67844ad254cf8f208aac476c2894134a9deab6692918290030190a350505050565b60076020526000908152604090205481565b60006020819052908152604090205481565b60008681526002602052604081205481908190811061114857600080fd5b888589604051808481526020018363ffffffff1663ffffffff1660e060020a02815260040182805190602001908083835b602083106111985780518252601f199092019160209182019101611179565b6001836020036101000a038019825116818451168082178552505050505050905001935050505060405180910390209150818787338760405180866000191660001916815260200185600160a060020a0316600160a060020a03166c010000000000000000000000000281526014018463ffffffff1663ffffffff1660e060020a02815260040183600160a060020a0316600160a060020a03166c01000000000000000000000000028152601401828152602001955050505050506040518091039020905061126a8183898989611f01565b816000191633600160a060020a031682600019167ffe2dac156a3890636ce13f65f4fdf41dcaee11526e4a5374531572d92194796c8c8c8c8c8c8c42604051808881526020018060200187600160a060020a0316600160a060020a031681526020018663ffffffff1663ffffffff1681526020018563ffffffff1663ffffffff168152602001848152602001838152602001828103825288818151815260200191508051906020019080838360005b83811015611331578181015183820152602001611319565b50505050905090810190601f16801561135e5780820380516001836020036101000a031916815260200191505b509850505050505050505060405180910390a498975050505050505050565b600083815260046020526040812060010154849190819060c060020a900463ffffffff1681106113ac57600080fd5b60008381526004602052604090206002015460ff16156113cb57600080fd5b60008381526004602052604090206001015460e060020a900463ffffffff16915081158061140457504263ffffffff168263ffffffff16115b151561140f57600080fd5b5060008281526004602052604090206001015460a060020a900463ffffffff1680158061144857504263ffffffff168163ffffffff1611155b151561145357600080fd5b856000341161146157600080fd5b60008181526004602052604090206006015461148490600263ffffffff6120a016565b34101561149057600080fd5b868560008111156114b9576000828152600460205260409020600601548110156114b957600080fd5b6114c78989333460006120c9565b6000898152600460205260409020600101546114f3908a908a9060c060020a900463ffffffff16611e8a565b505050505050505050565b6000818152600460205260408120600181015460029091015460e060020a90910463ffffffff169060ff1615801561153c5750600063ffffffff8216115b801561155457504263ffffffff168163ffffffff1611155b9392505050565b6006602052600090815260409020805460019091015463ffffffff821691640100000000900460ff169083565b600154600081815260026020908152604080832043905551845192939285928291908401908083835b602083106115d05780518252601f1990920191602091820191016115b1565b51815160209384036101000a6000190180199092169116179052604080519290940182900382206000888152600383528581209190915581835289518383015289513397508896507fb87fb721c0a557bb8dff89a86796466931d82ba530a66a239263eb8735ade2e4958b955084939084019290860191908190849084905b8381101561166757818101518382015260200161164f565b50505050905090810190601f1680156116945780820380516001836020036101000a031916815260200191505b509250505060405180910390a36116b281600163ffffffff611cc616565b60015592915050565b600460208190526000918252604090912080546001820154600283015460038401549484015460058501546006909501549395600160a060020a0384169563ffffffff60a060020a860481169660c060020a870482169660e060020a90049091169460ff169391908a565b60008061173288611588565b905061174281888888888861112a565b98975050505050505050565b60008161175a816114fe565b151561176557600080fd5b50506000908152600460208190526040909120015490565b60026020526000908152604090205481565b6000848152600460205260408120600101548190819087908290819060c060020a900463ffffffff1681106117c357600080fd5b60008381526004602052604090206002015460ff16156117e257600080fd5b60008381526004602052604090206001015460e060020a900463ffffffff16915081158061181b57504263ffffffff168263ffffffff16115b151561182657600080fd5b5060008281526004602052604090206001015460a060020a900463ffffffff1680158061185f57504263ffffffff168163ffffffff1611155b151561186a57600080fd5b896000341161187857600080fd5b60008181526004602052604090206006015461189b90600263ffffffff6120a016565b3410156118a757600080fd5b8a8960008111156118d0576000828152600460205260409020600601548110156118d057600080fd5b604080518e8152602081018e9052348183015290519081900360600190209850600160a060020a038a16156119055789611907565b335b60008a81526006602052604090205490985063ffffffff161561192957600080fd5b60008d81526004602052604090206001015460089060c060020a900463ffffffff1604965061196263ffffffff4281169089906121b416565b60008a8152600660205260409020805463ffffffff191663ffffffff929092169190911790556119968d8a8a3460016120c9565b50505050505050505050505050565b6000838152600460205260409020600101548390600160a060020a031633146119cd57600080fd5b600084815260046020526040812060010154859190819060c060020a900463ffffffff1681106119fc57600080fd5b60008381526004602052604090206002015460ff1615611a1b57600080fd5b60008381526004602052604090206001015460e060020a900463ffffffff169150811580611a5457504263ffffffff168263ffffffff16115b1515611a5f57600080fd5b5060008281526004602052604090206001015460a060020a900463ffffffff16801580611a9857504263ffffffff168163ffffffff1611155b1515611aa357600080fd5b86856000811115611acc57600082815260046020526040902060060154811015611acc57600080fd5b600089815260046020526040808220600201805460ff1916600117905551600160a060020a038a16918b917f75d7939999bc902187c4aed400872883e445145f1983539166f783fa040b47629190a3505050505050505050565b6000838152600460205260409020600101548390600160a060020a03163314611b4e57600080fd5b600084815260046020526040902060020154849060ff161515611b7057600080fd5b3415611b7b57600080fd5b600160a060020a0383161515611b9057600080fd5b604051849086907f18d760beffe3717270cd90d9d920ec1a48c194e9ad7bba23eb1c92d3eb974f9790600090a36000858152600460205260408120600201805460ff19169055611be690869086908690806120c9565b611bf285856000611e8a565b5050505050565b60408051858152602081018590528082018490526c01000000000000000000000000600160a060020a0384160260608201527f010000000000000000000000000000000000000000000000000000000000000060748201529051908190036075019020600090861415611c6e57506001611cbd565b60408051868152602081018690528082018590526c01000000000000000000000000600160a060020a03851602606082015260006074820152905190819003607501902086141561010e575060005b95945050505050565b81810182811015611cd357fe5b92915050565b6000806000808415611d5957600086815260066020526040902054869250640100000000900460ff161515611d31576000828152600660205260408120805464ffffffffff1916815560010155899350889250611dfa565b6000828152600660205260408120600181018054825464ffffffffff19169092559190915595505b858b1415611df357600160a060020a0389161515611db25760008c8152600460205260409020600301549798508897611d99908b9063ffffffff611cc616565b60008d8152600460205260408120600301559950611df3565b600160a060020a03888116908a1614611df357868a1015611dd35789611dd5565b865b9050611dec8c8a6109aa8d8563ffffffff6121cc16565b8798508099505b8989935093505b50509850989650505050505050565b600160a060020a038216600090815260208190526040902054611e32908263ffffffff611cc616565b600160a060020a038316600081815260208181526040918290209390935580518481529051919286927f9c121aff33b50c1a53fef034ebec5f83da2d5a5187048f9c76c397ba27c1a1a69281900390910190a3505050565b600083815260046020819052604090912001829055611eb363ffffffff4281169083906121b416565b600093845260046020526040909320600101805463ffffffff9490941660e060020a027bffffffffffffffffffffffffffffffffffffffffffffffffffffffff909416939093179092555050565b6000858152600460205260408120600101548190879060c060020a900463ffffffff1615611f2e57600080fd5b600063ffffffff861611611f4157600080fd5b6301e1338063ffffffff861610611f5757600080fd5b600160a060020a0386161515611f6c57600080fd5b34925033600160a060020a03871614611ffd57600160a060020a038616600090815260076020526040902054915081831015611fa757600080fd5b611fb7838363ffffffff6121cc16565b600160a060020a038716600090815260208190526040902054909350611fe3908363ffffffff611cc616565b600160a060020a0387166000908152602081905260409020555b505060009586526004602052604090952093845560018401805473ffffffffffffffffffffffffffffffffffffffff1916600160a060020a03949094169390931777ffffffff0000000000000000000000000000000000000000191660a060020a63ffffffff92831602177fffffffff00000000ffffffffffffffffffffffffffffffffffffffffffffffff1660c060020a929091169190910217905560030155565b60008215156120b157506000611cd3565b508181028183828115156120c157fe5b0414611cd357fe5b600085815260046020818152604080842060058101805483519081528085018b90528084018990526c01000000000000000000000000600160a060020a038b169081026060808401919091527f01000000000000000000000000000000000000000000000000000000000000008a151590810260748501528651938490036075018420998f905297875260069094018a9055918790558a8152938401869052838301889052429184019190915260808301939093525188917fe47ca4ebbbc2990134d1168821f38c5e177f3d5ee564bffeadeaa351905e6221919081900360a00190a3505050505050565b600082820163ffffffff808516908216101561155457fe5b6000828211156121d857fe5b509003905600a165627a7a723058204b38d81f15901d283c66f169d8e445e3f98da205cd450cb4cd6325e1940b2fa80029",
  "source": "pragma solidity ^0.4.18;\n\nimport \"openzeppelin-solidity/contracts/math/SafeMath.sol\";\nimport './SafeMath32.sol';\nimport './BalanceHolder.sol';\n\n\ncontract RealityCheck is BalanceHolder {\n\n    using SafeMath for uint256;\n    using SafeMath32 for uint32;\n\n    address constant NULL_ADDRESS = address(0);\n\n    // History hash when no history is created, or history has been cleared\n    bytes32 constant NULL_HASH = bytes32(0);\n\n    // An unitinalized finalize_ts for a question will indicate an unanswered question.\n    uint32 constant UNANSWERED = 0;\n\n    // An unanswered reveal_ts for a commitment will indicate that it does not exist.\n    uint256 constant COMMITMENT_NON_EXISTENT = 0;\n\n    // Commit->reveal timeout is 1/8 of the question timeout (rounded down).\n    uint32 constant COMMITMENT_TIMEOUT_RATIO = 8;\n\n    event LogSetQuestionFee(\n        address arbitrator,\n        uint256 amount\n    );\n\n    event LogNewTemplate(\n        uint256 indexed template_id,\n        address indexed user, \n        string question_text\n    );\n\n    event LogNewQuestion(\n        bytes32 indexed question_id,\n        address indexed user, \n        uint256 template_id,\n        string question,\n        bytes32 indexed content_hash,\n        address arbitrator, \n        uint32 timeout,\n        uint32 opening_ts,\n        uint256 nonce,\n        uint256 created\n    );\n\n    event LogFundAnswerBounty(\n        bytes32 indexed question_id,\n        uint256 bounty_added,\n        uint256 bounty,\n        address indexed user \n    );\n\n    event LogNewAnswer(\n        bytes32 answer,\n        bytes32 indexed question_id,\n        bytes32 history_hash,\n        address indexed user,\n        uint256 bond,\n        uint256 ts,\n        bool is_commitment\n    );\n\n    event LogAnswerReveal(\n        bytes32 indexed question_id, \n        address indexed user, \n        bytes32 indexed answer_hash, \n        bytes32 answer, \n        uint256 nonce, \n        uint256 bond\n    );\n\n    event LogNotifyOfArbitrationRequest(\n        bytes32 indexed question_id,\n        address indexed user \n    );\n\n    event LogFinalize(\n        bytes32 indexed question_id,\n        bytes32 indexed answer\n    );\n\n    event LogClaim(\n        bytes32 indexed question_id,\n        address indexed user,\n        uint256 amount\n    );\n\n    struct Question {\n        bytes32 content_hash;\n        address arbitrator;\n        uint32 opening_ts;\n        uint32 timeout;\n        uint32 finalize_ts;\n        bool is_pending_arbitration;\n        uint256 bounty;\n        bytes32 best_answer;\n        bytes32 history_hash;\n        uint256 bond;\n    }\n\n    // Stored in a mapping indexed by commitment_id, a hash of commitment hash, question, bond. \n    struct Commitment {\n        uint32 reveal_ts;\n        bool is_revealed;\n        bytes32 revealed_answer;\n    }\n\n    // Only used when claiming more bonds than fits into a transaction\n    // Stored in a mapping indexed by question_id.\n    struct Claim {\n        address payee;\n        uint256 last_bond;\n        uint256 queued_funds;\n    }\n\n    uint256 nextTemplateID = 0;\n    mapping(uint256 => uint256) public templates;\n    mapping(uint256 => bytes32) public template_hashes;\n    mapping(bytes32 => Question) public questions;\n    mapping(bytes32 => Claim) question_claims;\n    mapping(bytes32 => Commitment) public commitments;\n    mapping(address => uint256) public arbitrator_question_fees; \n\n    modifier onlyArbitrator(bytes32 question_id) {\n        require(msg.sender == questions[question_id].arbitrator);\n        _;\n    }\n\n    modifier stateAny() {\n        _;\n    }\n\n    modifier stateNotCreated(bytes32 question_id) {\n        require(questions[question_id].timeout == 0);\n        _;\n    }\n\n    modifier stateOpen(bytes32 question_id) {\n        require(questions[question_id].timeout > 0); // Check existence\n        require(!questions[question_id].is_pending_arbitration);\n        uint32 finalize_ts = questions[question_id].finalize_ts;\n        require(finalize_ts == UNANSWERED || finalize_ts > uint32(now));\n        uint32 opening_ts = questions[question_id].opening_ts;\n        require(opening_ts == 0 || opening_ts <= uint32(now)); \n        _;\n    }\n\n    modifier statePendingArbitration(bytes32 question_id) {\n        require(questions[question_id].is_pending_arbitration);\n        _;\n    }\n\n    modifier stateOpenOrPendingArbitration(bytes32 question_id) {\n        require(questions[question_id].timeout > 0); // Check existence\n        uint32 finalize_ts = questions[question_id].finalize_ts;\n        require(finalize_ts == UNANSWERED || finalize_ts > uint32(now));\n        uint32 opening_ts = questions[question_id].opening_ts;\n        require(opening_ts == 0 || opening_ts <= uint32(now)); \n        _;\n    }\n\n    modifier stateFinalized(bytes32 question_id) {\n        require(isFinalized(question_id));\n        _;\n    }\n\n    modifier bondMustBeZero() {\n        require(msg.value == 0);\n        _;\n    }\n\n    modifier bondMustDouble(bytes32 question_id) {\n        require(msg.value > 0); \n        require(msg.value >= (questions[question_id].bond.mul(2)));\n        _;\n    }\n\n    modifier previousBondMustNotBeatMaxPrevious(bytes32 question_id, uint256 max_previous) {\n        if (max_previous > 0) {\n            require(questions[question_id].bond <= max_previous);\n        }\n        _;\n    }\n\n    /// @notice Constructor, sets up some initial templates\n    /// @dev Creates some generalized templates for different question types used in the DApp.\n    function RealityCheck() \n    public {\n        createTemplate('{\"title\": \"%s\", \"type\": \"bool\", \"category\": \"%s\"}');\n        createTemplate('{\"title\": \"%s\", \"type\": \"uint\", \"decimals\": 18, \"category\": \"%s\"}');\n        createTemplate('{\"title\": \"%s\", \"type\": \"single-select\", \"outcomes\": [%s], \"category\": \"%s\"}');\n        createTemplate('{\"title\": \"%s\", \"type\": \"multiple-select\", \"outcomes\": [%s], \"category\": \"%s\"}');\n        createTemplate('{\"title\": \"%s\", \"type\": \"datetime\", \"category\": \"%s\"}');\n    }\n\n    /// @notice Function for arbitrator to set an optional per-question fee. \n    /// @dev The per-question fee, charged when a question is asked, is intended as an anti-spam measure.\n    /// @param fee The fee to be charged by the arbitrator when a question is asked\n    function setQuestionFee(uint256 fee) \n        stateAny() \n    external {\n        arbitrator_question_fees[msg.sender] = fee;\n        LogSetQuestionFee(msg.sender, fee);\n    }\n\n    /// @notice Create a reusable template, which should be a JSON document.\n    /// Placeholders should use gettext() syntax, eg %s.\n    /// @dev Template data is only stored in the event logs, but its block number is kept in contract storage.\n    /// @param content The template content\n    /// @return The ID of the newly-created template, which is created sequentially.\n    function createTemplate(string content) \n        stateAny()\n    public returns (uint256) {\n        uint256 id = nextTemplateID;\n        templates[id] = block.number;\n        template_hashes[id] = keccak256(content);\n        LogNewTemplate(id, msg.sender, content);\n        nextTemplateID = id.add(1);\n        return id;\n    }\n\n    /// @notice Create a new reusable template and use it to ask a question\n    /// @dev Template data is only stored in the event logs, but its block number is kept in contract storage.\n    /// @param content The template content\n    /// @param question A string containing the parameters that will be passed into the template to make the question\n    /// @param arbitrator The arbitration contract that will have the final word on the answer if there is a dispute\n    /// @param timeout How long the contract should wait after the answer is changed before finalizing on that answer\n    /// @param opening_ts If set, the earliest time it should be possible to answer the question.\n    /// @param nonce A user-specified nonce used in the question ID. Change it to repeat a question.\n    /// @return The ID of the newly-created template, which is created sequentially.\n    function createTemplateAndAskQuestion(\n        string content, \n        string question, address arbitrator, uint32 timeout, uint32 opening_ts, uint256 nonce \n    ) \n        // stateNotCreated is enforced by the internal _askQuestion\n    public payable returns (bytes32) {\n        uint256 template_id = createTemplate(content);\n        return askQuestion(template_id, question, arbitrator, timeout, opening_ts, nonce);\n    }\n\n    /// @notice Ask a new question and return the ID\n    /// @dev Template data is only stored in the event logs, but its block number is kept in contract storage.\n    /// @param template_id The ID number of the template the question will use\n    /// @param question A string containing the parameters that will be passed into the template to make the question\n    /// @param arbitrator The arbitration contract that will have the final word on the answer if there is a dispute\n    /// @param timeout How long the contract should wait after the answer is changed before finalizing on that answer\n    /// @param opening_ts If set, the earliest time it should be possible to answer the question.\n    /// @param nonce A user-specified nonce used in the question ID. Change it to repeat a question.\n    /// @return The ID of the newly-created question, created deterministically.\n    function askQuestion(uint256 template_id, string question, address arbitrator, uint32 timeout, uint32 opening_ts, uint256 nonce) \n        // stateNotCreated is enforced by the internal _askQuestion\n    public payable returns (bytes32) {\n\n        require(templates[template_id] > 0); // Template must exist\n\n        bytes32 content_hash = keccak256(template_id, opening_ts, question);\n        bytes32 question_id = keccak256(content_hash, arbitrator, timeout, msg.sender, nonce);\n\n        _askQuestion(question_id, content_hash, arbitrator, timeout, opening_ts);\n        LogNewQuestion(question_id, msg.sender, template_id, question, content_hash, arbitrator, timeout, opening_ts, nonce, now);\n\n        return question_id;\n    }\n\n    function _askQuestion(bytes32 question_id, bytes32 content_hash, address arbitrator, uint32 timeout, uint32 opening_ts) \n        stateNotCreated(question_id)\n    internal {\n\n        // A timeout of 0 makes no sense, and we will use this to check existence\n        require(timeout > 0); \n        require(timeout < 365 days); \n        require(arbitrator != NULL_ADDRESS);\n\n        uint256 bounty = msg.value;\n\n        // The arbitrator can set a fee for asking a question. \n        // This is intended as an anti-spam defence.\n        // The fee is waived if the arbitrator is asking the question.\n        // This allows them to set an impossibly high fee and make users proxy the question through them.\n        // This would allow more sophisticated pricing, question whitelisting etc.\n        if (msg.sender != arbitrator) {\n            uint256 question_fee = arbitrator_question_fees[arbitrator];\n            require(bounty >= question_fee); \n            bounty = bounty.sub(question_fee);\n            balanceOf[arbitrator] = balanceOf[arbitrator].add(question_fee);\n        }\n\n        questions[question_id].content_hash = content_hash;\n        questions[question_id].arbitrator = arbitrator;\n        questions[question_id].opening_ts = opening_ts;\n        questions[question_id].timeout = timeout;\n        questions[question_id].bounty = bounty;\n\n    }\n\n    /// @notice Add funds to the bounty for a question\n    /// @dev Add bounty funds after the initial question creation. Can be done any time until the question is finalized.\n    /// @param question_id The ID of the question you wish to fund\n    function fundAnswerBounty(bytes32 question_id) \n        stateOpen(question_id)\n    external payable {\n        questions[question_id].bounty = questions[question_id].bounty.add(msg.value);\n        LogFundAnswerBounty(question_id, msg.value, questions[question_id].bounty, msg.sender);\n    }\n\n    /// @notice Submit an answer for a question.\n    /// @dev Adds the answer to the history and updates the current \"best\" answer.\n    /// May be subject to front-running attacks; Substitute submitAnswerCommitment()->submitAnswerReveal() to prevent them.\n    /// @param question_id The ID of the question\n    /// @param answer The answer, encoded into bytes32\n    /// @param max_previous If specified, reverts if a bond higher than this was submitted after you sent your transaction.\n    function submitAnswer(bytes32 question_id, bytes32 answer, uint256 max_previous) \n        stateOpen(question_id)\n        bondMustDouble(question_id)\n        previousBondMustNotBeatMaxPrevious(question_id, max_previous)\n    external payable {\n        _addAnswerToHistory(question_id, answer, msg.sender, msg.value, false);\n        _updateCurrentAnswer(question_id, answer, questions[question_id].timeout);\n    }\n\n    /// @notice Submit the hash of an answer, laying your claim to that answer if you reveal it in a subsequent transaction.\n    /// @dev Creates a hash, commitment_id, uniquely identifying this answer, to this question, with this bond.\n    /// The commitment_id is stored in the answer history where the answer would normally go.\n    /// Does not update the current best answer - this is left to the later submitAnswerReveal() transaction.\n    /// @param question_id The ID of the question\n    /// @param answer_hash The hash of your answer, plus a nonce that you will later reveal\n    /// @param max_previous If specified, reverts if a bond higher than this was submitted after you sent your transaction.\n    /// @param _answerer If specified, the address to be given as the question answerer. Defaults to the sender.\n    /// @dev Specifying the answerer is useful if you want to delegate the commit-and-reveal to a third-party.\n    function submitAnswerCommitment(bytes32 question_id, bytes32 answer_hash, uint256 max_previous, address _answerer) \n        stateOpen(question_id)\n        bondMustDouble(question_id)\n        previousBondMustNotBeatMaxPrevious(question_id, max_previous)\n    external payable {\n\n        bytes32 commitment_id = keccak256(question_id, answer_hash, msg.value);\n        address answerer = (_answerer == NULL_ADDRESS) ? msg.sender : _answerer;\n\n        require(commitments[commitment_id].reveal_ts == COMMITMENT_NON_EXISTENT);\n\n        uint32 commitment_timeout = questions[question_id].timeout / COMMITMENT_TIMEOUT_RATIO;\n        commitments[commitment_id].reveal_ts = uint32(now).add(commitment_timeout);\n\n        _addAnswerToHistory(question_id, commitment_id, answerer, msg.value, true);\n\n    }\n\n    /// @notice Submit the answer whose hash you sent in a previous submitAnswerCommitment() transaction\n    /// @dev Checks the parameters supplied recreate an existing commitment, and stores the revealed answer\n    /// Updates the current answer unless someone has since supplied a new answer with a higher bond\n    /// msg.sender is intentionally not restricted to the user who originally sent the commitment; \n    /// For example, the user may want to provide the answer+nonce to a third-party service and let them send the tx\n    /// NB If we are pending arbitration, it will be up to the arbitrator to wait and see any outstanding reveal is sent\n    /// @param question_id The ID of the question\n    /// @param answer The answer, encoded as bytes32\n    /// @param nonce The nonce that, combined with the answer, recreates the answer_hash you gave in submitAnswerCommitment()\n    /// @param bond The bond that you paid in your submitAnswerCommitment() transaction\n    function submitAnswerReveal(bytes32 question_id, bytes32 answer, uint256 nonce, uint256 bond) \n        stateOpenOrPendingArbitration(question_id)\n    external {\n\n        bytes32 answer_hash = keccak256(answer, nonce);\n        bytes32 commitment_id = keccak256(question_id, answer_hash, bond);\n\n        require(!commitments[commitment_id].is_revealed);\n        require(commitments[commitment_id].reveal_ts > uint32(now)); // Reveal deadline must not have passed\n\n        commitments[commitment_id].revealed_answer = answer;\n        commitments[commitment_id].is_revealed = true;\n\n        if (bond == questions[question_id].bond) {\n            _updateCurrentAnswer(question_id, answer, questions[question_id].timeout);\n        }\n\n        LogAnswerReveal(question_id, msg.sender, answer_hash, answer, nonce, bond);\n\n    }\n\n    function _addAnswerToHistory(bytes32 question_id, bytes32 answer_or_commitment_id, address answerer, uint256 bond, bool is_commitment) \n    internal \n    {\n        bytes32 new_history_hash = keccak256(questions[question_id].history_hash, answer_or_commitment_id, bond, answerer, is_commitment);\n\n        questions[question_id].bond = bond;\n        questions[question_id].history_hash = new_history_hash;\n\n        LogNewAnswer(answer_or_commitment_id, question_id, new_history_hash, answerer, bond, now, is_commitment);\n    }\n\n    function _updateCurrentAnswer(bytes32 question_id, bytes32 answer, uint32 timeout_secs)\n    internal {\n        questions[question_id].best_answer = answer;\n        questions[question_id].finalize_ts = uint32(now).add(timeout_secs);\n    }\n\n    /// @notice Notify the contract that the arbitrator has been paid for a question, freezing it pending their decision.\n    /// @dev The arbitrator contract is trusted to only call this if they've been paid, and tell us who paid them.\n    /// @param question_id The ID of the question\n    /// @param requester The account that requested arbitration\n    /// @param max_previous If specified, reverts if a bond higher than this was submitted after you sent your transaction.\n    function notifyOfArbitrationRequest(bytes32 question_id, address requester, uint256 max_previous) \n        onlyArbitrator(question_id)\n        stateOpen(question_id)\n        previousBondMustNotBeatMaxPrevious(question_id, max_previous)\n    external {\n        questions[question_id].is_pending_arbitration = true;\n        LogNotifyOfArbitrationRequest(question_id, requester);\n    }\n\n    /// @notice Submit the answer for a question, for use by the arbitrator.\n    /// @dev Doesn't require (or allow) a bond.\n    /// If the current final answer is correct, the account should be whoever submitted it.\n    /// If the current final answer is wrong, the account should be whoever paid for arbitration.\n    /// However, the answerer stipulations are not enforced by the contract.\n    /// @param question_id The ID of the question\n    /// @param answer The answer, encoded into bytes32\n    /// @param answerer The account credited with this answer for the purpose of bond claims\n    function submitAnswerByArbitrator(bytes32 question_id, bytes32 answer, address answerer) \n        onlyArbitrator(question_id)\n        statePendingArbitration(question_id)\n        bondMustBeZero\n    external {\n\n        require(answerer != NULL_ADDRESS);\n        LogFinalize(question_id, answer);\n\n        questions[question_id].is_pending_arbitration = false;\n        _addAnswerToHistory(question_id, answer, answerer, 0, false);\n        _updateCurrentAnswer(question_id, answer, 0);\n\n    }\n\n    /// @notice Report whether the answer to the specified question is finalized\n    /// @param question_id The ID of the question\n    /// @return Return true if finalized\n    function isFinalized(bytes32 question_id) \n    constant public returns (bool) {\n        uint32 finalize_ts = questions[question_id].finalize_ts;\n        return ( !questions[question_id].is_pending_arbitration && (finalize_ts > UNANSWERED) && (finalize_ts <= uint32(now)) );\n    }\n\n    /// @notice Return the final answer to the specified question, or revert if there isn't one\n    /// @param question_id The ID of the question\n    /// @return The answer formatted as a bytes32\n    function getFinalAnswer(bytes32 question_id) \n        stateFinalized(question_id)\n    external constant returns (bytes32) {\n        return questions[question_id].best_answer;\n    }\n\n    /// @notice Return the final answer to the specified question, provided it matches the specified criteria.\n    /// @dev Reverts if the question is not finalized, or if it does not match the specified criteria.\n    /// @param question_id The ID of the question\n    /// @param content_hash The hash of the question content (template ID + opening time + question parameter string)\n    /// @param arbitrator The arbitrator chosen for the question (regardless of whether they are asked to arbitrate)\n    /// @param min_timeout The timeout set in the initial question settings must be this high or higher\n    /// @param min_bond The bond sent with the final answer must be this high or higher\n    /// @return The answer formatted as a bytes32\n    function getFinalAnswerIfMatches(\n        bytes32 question_id, \n        bytes32 content_hash, address arbitrator, uint32 min_timeout, uint256 min_bond\n    ) \n        stateFinalized(question_id)\n    external constant returns (bytes32) {\n        require(content_hash == questions[question_id].content_hash);\n        require(arbitrator == questions[question_id].arbitrator);\n        require(min_timeout <= questions[question_id].timeout);\n        require(min_bond <= questions[question_id].bond);\n        return questions[question_id].best_answer;\n    }\n\n    /// @notice Assigns the winnings (bounty and bonds) to everyone who gave the accepted answer\n    /// Caller must provide the answer history, in reverse order\n    /// @dev Works up the chain and assign bonds to the person who gave the right answer\n    /// If someone gave the winning answer earlier, they must get paid from the higher bond\n    /// That means we can't pay out the bond added at n until we have looked at n-1\n    /// The first answer is authenticated by checking against the stored history_hash.\n    /// One of the inputs to history_hash is the history_hash before it, so we use that to authenticate the next entry, etc\n    /// Once we get to a null hash we'll know we're done and there are no more answers.\n    /// Usually you would call the whole thing in a single transaction, but if not then the data is persisted to pick up later.\n    /// @param question_id The ID of the question\n    /// @param history_hashes Second-last-to-first, the hash of each history entry. (Final one should be empty).\n    /// @param addrs Last-to-first, the address of each answerer or commitment sender\n    /// @param bonds Last-to-first, the bond supplied with each answer or commitment\n    /// @param answers Last-to-first, each answer supplied, or commitment ID if the answer was supplied with commit->reveal\n    function claimWinnings(\n        bytes32 question_id, \n        bytes32[] history_hashes, address[] addrs, uint256[] bonds, bytes32[] answers\n    ) \n        stateFinalized(question_id)\n    public {\n\n        require(history_hashes.length > 0);\n\n        // These are only set if we split our claim over multiple transactions.\n        address payee = question_claims[question_id].payee; \n        uint256 last_bond = question_claims[question_id].last_bond; \n        uint256 queued_funds = question_claims[question_id].queued_funds; \n\n        // Starts as the hash of the final answer submitted. It'll be cleared when we're done.\n        // If we're splitting the claim over multiple transactions, it'll be the hash where we left off last time\n        bytes32 last_history_hash = questions[question_id].history_hash;\n\n        bytes32 best_answer = questions[question_id].best_answer;\n\n        uint256 i;\n        for (i = 0; i < history_hashes.length; i++) {\n        \n            // Check input against the history hash, and see which of 2 possible values of is_commitment fits.\n            bool is_commitment = _verifyHistoryInputOrRevert(last_history_hash, history_hashes[i], answers[i], bonds[i], addrs[i]);\n            \n            queued_funds = queued_funds.add(last_bond); \n            (queued_funds, payee) = _processHistoryItem(\n                question_id, best_answer, queued_funds, payee, \n                addrs[i], bonds[i], answers[i], is_commitment);\n \n            // Line the bond up for next time, when it will be added to somebody's queued_funds\n            last_bond = bonds[i];\n            last_history_hash = history_hashes[i];\n\n        }\n \n        if (last_history_hash != NULL_HASH) {\n            // We haven't yet got to the null hash (1st answer), ie the caller didn't supply the full answer chain.\n            // Persist the details so we can pick up later where we left off later.\n\n            // If we know who to pay we can go ahead and pay them out, only keeping back last_bond\n            // (We always know who to pay unless all we saw were unrevealed commits)\n            if (payee != NULL_ADDRESS) {\n                _payPayee(question_id, payee, queued_funds);\n                queued_funds = 0;\n            }\n\n            question_claims[question_id].payee = payee;\n            question_claims[question_id].last_bond = last_bond;\n            question_claims[question_id].queued_funds = queued_funds;\n        } else {\n            // There is nothing left below us so the payee can keep what remains\n            _payPayee(question_id, payee, queued_funds.add(last_bond));\n            delete question_claims[question_id];\n        }\n\n        questions[question_id].history_hash = last_history_hash;\n\n    }\n\n    function _payPayee(bytes32 question_id, address payee, uint256 value) \n    internal {\n        balanceOf[payee] = balanceOf[payee].add(value);\n        LogClaim(question_id, payee, value);\n    }\n\n    function _verifyHistoryInputOrRevert(\n        bytes32 last_history_hash,\n        bytes32 history_hash, bytes32 answer, uint256 bond, address addr\n    )\n    internal pure returns (bool) {\n        if (last_history_hash == keccak256(history_hash, answer, bond, addr, true) ) {\n            return true;\n        }\n        if (last_history_hash == keccak256(history_hash, answer, bond, addr, false) ) {\n            return false;\n        } \n        revert();\n    }\n\n    function _processHistoryItem(\n        bytes32 question_id, bytes32 best_answer, \n        uint256 queued_funds, address payee, \n        address addr, uint256 bond, bytes32 answer, bool is_commitment\n    )\n    internal returns (uint256, address) {\n\n        // For commit-and-reveal, the answer history holds the commitment ID instead of the answer.\n        // We look at the referenced commitment ID and switch in the actual answer.\n        if (is_commitment) {\n            bytes32 commitment_id = answer;\n            // If it's a commit but it hasn't been revealed, it will always be considered wrong.\n            if (!commitments[commitment_id].is_revealed) {\n                delete commitments[commitment_id];\n                return (queued_funds, payee);\n            } else {\n                answer = commitments[commitment_id].revealed_answer;\n                delete commitments[commitment_id];\n            }\n        }\n\n        if (answer == best_answer) {\n\n            if (payee == NULL_ADDRESS) {\n\n                // The entry is for the first payee we come to, ie the winner.\n                // They get the question bounty.\n                payee = addr;\n                queued_funds = queued_funds.add(questions[question_id].bounty);\n                questions[question_id].bounty = 0;\n\n            } else if (addr != payee) {\n\n                // Answerer has changed, ie we found someone lower down who needs to be paid\n\n                // The lower answerer will take over receiving bonds from higher answerer.\n                // They should also be paid the takeover fee, which is set at a rate equivalent to their bond. \n                // (This is our arbitrary rule, to give consistent right-answerers a defence against high-rollers.)\n\n                // There should be enough for the fee, but if not, take what we have.\n                // There's an edge case involving weird arbitrator behaviour where we may be short.\n                uint256 answer_takeover_fee = (queued_funds >= bond) ? bond : queued_funds;\n\n                // Settle up with the old (higher-bonded) payee\n                _payPayee(question_id, payee, queued_funds.sub(answer_takeover_fee));\n\n                // Now start queued_funds again for the new (lower-bonded) payee\n                payee = addr;\n                queued_funds = answer_takeover_fee;\n\n            }\n\n        }\n\n        return (queued_funds, payee);\n\n    }\n\n    /// @notice Convenience function to assign bounties/bonds for multiple questions in one go, then withdraw all your funds.\n    /// Caller must provide the answer history for each question, in reverse order\n    /// @dev Can be called by anyone to assign bonds/bounties, but funds are only withdrawn for the user making the call.\n    /// @param question_ids The IDs of the questions you want to claim for\n    /// @param lengths The number of history entries you will supply for each question ID\n    /// @param hist_hashes In a single list for all supplied questions, the hash of each history entry.\n    /// @param addrs In a single list for all supplied questions, the address of each answerer or commitment sender\n    /// @param bonds In a single list for all supplied questions, the bond supplied with each answer or commitment\n    /// @param answers In a single list for all supplied questions, each answer supplied, or commitment ID \n    function claimMultipleAndWithdrawBalance(\n        bytes32[] question_ids, uint256[] lengths, \n        bytes32[] hist_hashes, address[] addrs, uint256[] bonds, bytes32[] answers\n    ) \n        stateAny() // The finalization checks are done in the claimWinnings function\n    public {\n        \n        uint256 qi;\n        uint256 i;\n        for (qi = 0; qi < question_ids.length; qi++) {\n            bytes32 qid = question_ids[qi];\n            uint256 ln = lengths[qi];\n            bytes32[] memory hh = new bytes32[](ln);\n            address[] memory ad = new address[](ln);\n            uint256[] memory bo = new uint256[](ln);\n            bytes32[] memory an = new bytes32[](ln);\n            uint256 j;\n            for (j = 0; j < ln; j++) {\n                hh[j] = hist_hashes[i];\n                ad[j] = addrs[i];\n                bo[j] = bonds[i];\n                an[j] = answers[i];\n                i++;\n            }\n            claimWinnings(qid, hh, ad, bo, an);\n        }\n        withdraw();\n    }\n}\n",
  "sourcePath": "/home/josojo/reality/realitio-contracts/truffle/contracts/RealityCheck.sol",
  "compiler": {
    "name": "solc",
    "version": "0.4.24+commit.e67f0147.Emscripten.clang"
  },
  "schemaVersion": "2.0.1",
  "updatedAt": "2018-10-07T13:57:20.743Z"
}