{
  "contractName": "RealitioERC20_v2_1",
  "abi": [
    {
      "constant": false,
      "inputs": [],
      "name": "withdraw",
      "outputs": [],
      "payable": false,
      "stateMutability": "nonpayable",
      "type": "function"
    },
    {
      "constant": true,
      "inputs": [
        {
          "name": "",
          "type": "uint256"
        }
      ],
      "name": "template_hashes",
      "outputs": [
        {
          "name": "",
          "type": "bytes32"
        }
      ],
      "payable": false,
      "stateMutability": "view",
      "type": "function"
    },
    {
      "constant": true,
      "inputs": [
        {
          "name": "",
          "type": "bytes32"
        }
      ],
      "name": "question_claims",
      "outputs": [
        {
          "name": "payee",
          "type": "address"
        },
        {
          "name": "last_bond",
          "type": "uint256"
        },
        {
          "name": "queued_funds",
          "type": "uint256"
        }
      ],
      "payable": false,
      "stateMutability": "view",
      "type": "function"
    },
    {
      "constant": true,
      "inputs": [
        {
          "name": "",
          "type": "address"
        }
      ],
      "name": "arbitrator_question_fees",
      "outputs": [
        {
          "name": "",
          "type": "uint256"
        }
      ],
      "payable": false,
      "stateMutability": "view",
      "type": "function"
    },
    {
      "constant": true,
      "inputs": [
        {
          "name": "",
          "type": "address"
        }
      ],
      "name": "balanceOf",
      "outputs": [
        {
          "name": "",
          "type": "uint256"
        }
      ],
      "payable": false,
      "stateMutability": "view",
      "type": "function"
    },
    {
      "constant": true,
      "inputs": [
        {
          "name": "",
          "type": "bytes32"
        }
      ],
      "name": "commitments",
      "outputs": [
        {
          "name": "reveal_ts",
          "type": "uint32"
        },
        {
          "name": "is_revealed",
          "type": "bool"
        },
        {
          "name": "revealed_answer",
          "type": "bytes32"
        }
      ],
      "payable": false,
      "stateMutability": "view",
      "type": "function"
    },
    {
      "constant": true,
      "inputs": [
        {
          "name": "",
          "type": "bytes32"
        }
      ],
      "name": "questions",
      "outputs": [
        {
          "name": "content_hash",
          "type": "bytes32"
        },
        {
          "name": "arbitrator",
          "type": "address"
        },
        {
          "name": "opening_ts",
          "type": "uint32"
        },
        {
          "name": "timeout",
          "type": "uint32"
        },
        {
          "name": "finalize_ts",
          "type": "uint32"
        },
        {
          "name": "is_pending_arbitration",
          "type": "bool"
        },
        {
          "name": "bounty",
          "type": "uint256"
        },
        {
          "name": "best_answer",
          "type": "bytes32"
        },
        {
          "name": "history_hash",
          "type": "bytes32"
        },
        {
          "name": "bond",
          "type": "uint256"
        }
      ],
      "payable": false,
      "stateMutability": "view",
      "type": "function"
    },
    {
      "constant": true,
      "inputs": [
        {
          "name": "",
          "type": "uint256"
        }
      ],
      "name": "templates",
      "outputs": [
        {
          "name": "",
          "type": "uint256"
        }
      ],
      "payable": false,
      "stateMutability": "view",
      "type": "function"
    },
    {
      "constant": true,
      "inputs": [],
      "name": "token",
      "outputs": [
        {
          "name": "",
          "type": "address"
        }
      ],
      "payable": false,
      "stateMutability": "view",
      "type": "function"
    },
    {
      "inputs": [],
      "payable": false,
      "stateMutability": "nonpayable",
      "type": "constructor"
    },
    {
      "anonymous": false,
      "inputs": [
        {
          "indexed": false,
          "name": "arbitrator",
          "type": "address"
        },
        {
          "indexed": false,
          "name": "amount",
          "type": "uint256"
        }
      ],
      "name": "LogSetQuestionFee",
      "type": "event"
    },
    {
      "anonymous": false,
      "inputs": [
        {
          "indexed": true,
          "name": "template_id",
          "type": "uint256"
        },
        {
          "indexed": true,
          "name": "user",
          "type": "address"
        },
        {
          "indexed": false,
          "name": "question_text",
          "type": "string"
        }
      ],
      "name": "LogNewTemplate",
      "type": "event"
    },
    {
      "anonymous": false,
      "inputs": [
        {
          "indexed": true,
          "name": "question_id",
          "type": "bytes32"
        },
        {
          "indexed": true,
          "name": "user",
          "type": "address"
        },
        {
          "indexed": false,
          "name": "template_id",
          "type": "uint256"
        },
        {
          "indexed": false,
          "name": "question",
          "type": "string"
        },
        {
          "indexed": true,
          "name": "content_hash",
          "type": "bytes32"
        },
        {
          "indexed": false,
          "name": "arbitrator",
          "type": "address"
        },
        {
          "indexed": false,
          "name": "timeout",
          "type": "uint32"
        },
        {
          "indexed": false,
          "name": "opening_ts",
          "type": "uint32"
        },
        {
          "indexed": false,
          "name": "nonce",
          "type": "uint256"
        },
        {
          "indexed": false,
          "name": "created",
          "type": "uint256"
        }
      ],
      "name": "LogNewQuestion",
      "type": "event"
    },
    {
      "anonymous": false,
      "inputs": [
        {
          "indexed": true,
          "name": "question_id",
          "type": "bytes32"
        },
        {
          "indexed": false,
          "name": "bounty_added",
          "type": "uint256"
        },
        {
          "indexed": false,
          "name": "bounty",
          "type": "uint256"
        },
        {
          "indexed": true,
          "name": "user",
          "type": "address"
        }
      ],
      "name": "LogFundAnswerBounty",
      "type": "event"
    },
    {
      "anonymous": false,
      "inputs": [
        {
          "indexed": false,
          "name": "answer",
          "type": "bytes32"
        },
        {
          "indexed": true,
          "name": "question_id",
          "type": "bytes32"
        },
        {
          "indexed": false,
          "name": "history_hash",
          "type": "bytes32"
        },
        {
          "indexed": true,
          "name": "user",
          "type": "address"
        },
        {
          "indexed": false,
          "name": "bond",
          "type": "uint256"
        },
        {
          "indexed": false,
          "name": "ts",
          "type": "uint256"
        },
        {
          "indexed": false,
          "name": "is_commitment",
          "type": "bool"
        }
      ],
      "name": "LogNewAnswer",
      "type": "event"
    },
    {
      "anonymous": false,
      "inputs": [
        {
          "indexed": true,
          "name": "question_id",
          "type": "bytes32"
        },
        {
          "indexed": true,
          "name": "user",
          "type": "address"
        },
        {
          "indexed": true,
          "name": "answer_hash",
          "type": "bytes32"
        },
        {
          "indexed": false,
          "name": "answer",
          "type": "bytes32"
        },
        {
          "indexed": false,
          "name": "nonce",
          "type": "uint256"
        },
        {
          "indexed": false,
          "name": "bond",
          "type": "uint256"
        }
      ],
      "name": "LogAnswerReveal",
      "type": "event"
    },
    {
      "anonymous": false,
      "inputs": [
        {
          "indexed": true,
          "name": "question_id",
          "type": "bytes32"
        },
        {
          "indexed": true,
          "name": "user",
          "type": "address"
        }
      ],
      "name": "LogNotifyOfArbitrationRequest",
      "type": "event"
    },
    {
      "anonymous": false,
      "inputs": [
        {
          "indexed": true,
          "name": "question_id",
          "type": "bytes32"
        }
      ],
      "name": "LogCancelArbitration",
      "type": "event"
    },
    {
      "anonymous": false,
      "inputs": [
        {
          "indexed": true,
          "name": "question_id",
          "type": "bytes32"
        },
        {
          "indexed": true,
          "name": "answer",
          "type": "bytes32"
        }
      ],
      "name": "LogFinalize",
      "type": "event"
    },
    {
      "anonymous": false,
      "inputs": [
        {
          "indexed": true,
          "name": "question_id",
          "type": "bytes32"
        },
        {
          "indexed": true,
          "name": "user",
          "type": "address"
        },
        {
          "indexed": false,
          "name": "amount",
          "type": "uint256"
        }
      ],
      "name": "LogClaim",
      "type": "event"
    },
    {
      "anonymous": false,
      "inputs": [
        {
          "indexed": true,
          "name": "user",
          "type": "address"
        },
        {
          "indexed": false,
          "name": "amount",
          "type": "uint256"
        }
      ],
      "name": "LogWithdraw",
      "type": "event"
    },
    {
      "constant": false,
      "inputs": [
        {
          "name": "_token",
          "type": "address"
        }
      ],
      "name": "setToken",
      "outputs": [],
      "payable": false,
      "stateMutability": "nonpayable",
      "type": "function"
    },
    {
      "constant": false,
      "inputs": [
        {
          "name": "fee",
          "type": "uint256"
        }
      ],
      "name": "setQuestionFee",
      "outputs": [],
      "payable": false,
      "stateMutability": "nonpayable",
      "type": "function"
    },
    {
      "constant": false,
      "inputs": [
        {
          "name": "content",
          "type": "string"
        }
      ],
      "name": "createTemplate",
      "outputs": [
        {
          "name": "",
          "type": "uint256"
        }
      ],
      "payable": false,
      "stateMutability": "nonpayable",
      "type": "function"
    },
    {
      "constant": false,
      "inputs": [
        {
          "name": "content",
          "type": "string"
        },
        {
          "name": "question",
          "type": "string"
        },
        {
          "name": "arbitrator",
          "type": "address"
        },
        {
          "name": "timeout",
          "type": "uint32"
        },
        {
          "name": "opening_ts",
          "type": "uint32"
        },
        {
          "name": "nonce",
          "type": "uint256"
        }
      ],
      "name": "createTemplateAndAskQuestion",
      "outputs": [
        {
          "name": "",
          "type": "bytes32"
        }
      ],
      "payable": false,
      "stateMutability": "nonpayable",
      "type": "function"
    },
    {
      "constant": false,
      "inputs": [
        {
          "name": "template_id",
          "type": "uint256"
        },
        {
          "name": "question",
          "type": "string"
        },
        {
          "name": "arbitrator",
          "type": "address"
        },
        {
          "name": "timeout",
          "type": "uint32"
        },
        {
          "name": "opening_ts",
          "type": "uint32"
        },
        {
          "name": "nonce",
          "type": "uint256"
        }
      ],
      "name": "askQuestion",
      "outputs": [
        {
          "name": "",
          "type": "bytes32"
        }
      ],
      "payable": false,
      "stateMutability": "nonpayable",
      "type": "function"
    },
    {
      "constant": false,
      "inputs": [
        {
          "name": "template_id",
          "type": "uint256"
        },
        {
          "name": "question",
          "type": "string"
        },
        {
          "name": "arbitrator",
          "type": "address"
        },
        {
          "name": "timeout",
          "type": "uint32"
        },
        {
          "name": "opening_ts",
          "type": "uint32"
        },
        {
          "name": "nonce",
          "type": "uint256"
        },
        {
          "name": "tokens",
          "type": "uint256"
        }
      ],
      "name": "askQuestionERC20",
      "outputs": [
        {
          "name": "",
          "type": "bytes32"
        }
      ],
      "payable": false,
      "stateMutability": "nonpayable",
      "type": "function"
    },
    {
      "constant": false,
      "inputs": [
        {
          "name": "question_id",
          "type": "bytes32"
        },
        {
          "name": "tokens",
          "type": "uint256"
        }
      ],
      "name": "fundAnswerBountyERC20",
      "outputs": [],
      "payable": false,
      "stateMutability": "nonpayable",
      "type": "function"
    },
    {
      "constant": false,
      "inputs": [
        {
          "name": "question_id",
          "type": "bytes32"
        },
        {
          "name": "answer",
          "type": "bytes32"
        },
        {
          "name": "max_previous",
          "type": "uint256"
        },
        {
          "name": "tokens",
          "type": "uint256"
        }
      ],
      "name": "submitAnswerERC20",
      "outputs": [],
      "payable": false,
      "stateMutability": "nonpayable",
      "type": "function"
    },
    {
      "constant": false,
      "inputs": [
        {
          "name": "question_id",
          "type": "bytes32"
        },
        {
          "name": "answer",
          "type": "bytes32"
        },
        {
          "name": "max_previous",
          "type": "uint256"
        },
        {
          "name": "answerer",
          "type": "address"
        },
        {
          "name": "tokens",
          "type": "uint256"
        }
      ],
      "name": "submitAnswerForERC20",
      "outputs": [],
      "payable": true,
      "stateMutability": "payable",
      "type": "function"
    },
    {
      "constant": false,
      "inputs": [
        {
          "name": "question_id",
          "type": "bytes32"
        },
        {
          "name": "answer_hash",
          "type": "bytes32"
        },
        {
          "name": "max_previous",
          "type": "uint256"
        },
        {
          "name": "_answerer",
          "type": "address"
        },
        {
          "name": "tokens",
          "type": "uint256"
        }
      ],
      "name": "submitAnswerCommitmentERC20",
      "outputs": [],
      "payable": false,
      "stateMutability": "nonpayable",
      "type": "function"
    },
    {
      "constant": false,
      "inputs": [
        {
          "name": "question_id",
          "type": "bytes32"
        },
        {
          "name": "answer",
          "type": "bytes32"
        },
        {
          "name": "nonce",
          "type": "uint256"
        },
        {
          "name": "bond",
          "type": "uint256"
        }
      ],
      "name": "submitAnswerReveal",
      "outputs": [],
      "payable": false,
      "stateMutability": "nonpayable",
      "type": "function"
    },
    {
      "constant": false,
      "inputs": [
        {
          "name": "question_id",
          "type": "bytes32"
        },
        {
          "name": "requester",
          "type": "address"
        },
        {
          "name": "max_previous",
          "type": "uint256"
        }
      ],
      "name": "notifyOfArbitrationRequest",
      "outputs": [],
      "payable": false,
      "stateMutability": "nonpayable",
      "type": "function"
    },
    {
      "constant": false,
      "inputs": [
        {
          "name": "question_id",
          "type": "bytes32"
        }
      ],
      "name": "cancelArbitration",
      "outputs": [],
      "payable": false,
      "stateMutability": "nonpayable",
      "type": "function"
    },
    {
      "constant": false,
      "inputs": [
        {
          "name": "question_id",
          "type": "bytes32"
        },
        {
          "name": "answer",
          "type": "bytes32"
        },
        {
          "name": "answerer",
          "type": "address"
        }
      ],
      "name": "submitAnswerByArbitrator",
      "outputs": [],
      "payable": false,
      "stateMutability": "nonpayable",
      "type": "function"
    },
    {
      "constant": false,
      "inputs": [
        {
          "name": "question_id",
          "type": "bytes32"
        },
        {
          "name": "answer",
          "type": "bytes32"
        },
        {
          "name": "payee_if_wrong",
          "type": "address"
        },
        {
          "name": "last_history_hash",
          "type": "bytes32"
        },
        {
          "name": "last_answer_or_commitment_id",
          "type": "bytes32"
        },
        {
          "name": "last_answerer",
          "type": "address"
        }
      ],
      "name": "assignWinnerAndSubmitAnswerByArbitrator",
      "outputs": [],
      "payable": false,
      "stateMutability": "nonpayable",
      "type": "function"
    },
    {
      "constant": true,
      "inputs": [
        {
          "name": "question_id",
          "type": "bytes32"
        }
      ],
      "name": "isFinalized",
      "outputs": [
        {
          "name": "",
          "type": "bool"
        }
      ],
      "payable": false,
      "stateMutability": "view",
      "type": "function"
    },
    {
      "constant": true,
      "inputs": [
        {
          "name": "question_id",
          "type": "bytes32"
        }
      ],
      "name": "getFinalAnswer",
      "outputs": [
        {
          "name": "",
          "type": "bytes32"
        }
      ],
      "payable": false,
      "stateMutability": "view",
      "type": "function"
    },
    {
      "constant": true,
      "inputs": [
        {
          "name": "question_id",
          "type": "bytes32"
        }
      ],
      "name": "resultFor",
      "outputs": [
        {
          "name": "",
          "type": "bytes32"
        }
      ],
      "payable": false,
      "stateMutability": "view",
      "type": "function"
    },
    {
      "constant": true,
      "inputs": [
        {
          "name": "question_id",
          "type": "bytes32"
        },
        {
          "name": "content_hash",
          "type": "bytes32"
        },
        {
          "name": "arbitrator",
          "type": "address"
        },
        {
          "name": "min_timeout",
          "type": "uint32"
        },
        {
          "name": "min_bond",
          "type": "uint256"
        }
      ],
      "name": "getFinalAnswerIfMatches",
      "outputs": [
        {
          "name": "",
          "type": "bytes32"
        }
      ],
      "payable": false,
      "stateMutability": "view",
      "type": "function"
    },
    {
      "constant": false,
      "inputs": [
        {
          "name": "question_id",
          "type": "bytes32"
        },
        {
          "name": "history_hashes",
          "type": "bytes32[]"
        },
        {
          "name": "addrs",
          "type": "address[]"
        },
        {
          "name": "bonds",
          "type": "uint256[]"
        },
        {
          "name": "answers",
          "type": "bytes32[]"
        }
      ],
      "name": "claimWinnings",
      "outputs": [],
      "payable": false,
      "stateMutability": "nonpayable",
      "type": "function"
    },
    {
      "constant": false,
      "inputs": [
        {
          "name": "question_ids",
          "type": "bytes32[]"
        },
        {
          "name": "lengths",
          "type": "uint256[]"
        },
        {
          "name": "hist_hashes",
          "type": "bytes32[]"
        },
        {
          "name": "addrs",
          "type": "address[]"
        },
        {
          "name": "bonds",
          "type": "uint256[]"
        },
        {
          "name": "answers",
          "type": "bytes32[]"
        }
      ],
      "name": "claimMultipleAndWithdrawBalance",
      "outputs": [],
      "payable": false,
      "stateMutability": "nonpayable",
      "type": "function"
    },
    {
      "constant": true,
      "inputs": [
        {
          "name": "question_id",
          "type": "bytes32"
        }
      ],
      "name": "getContentHash",
      "outputs": [
        {
          "name": "",
          "type": "bytes32"
        }
      ],
      "payable": false,
      "stateMutability": "view",
      "type": "function"
    },
    {
      "constant": true,
      "inputs": [
        {
          "name": "question_id",
          "type": "bytes32"
        }
      ],
      "name": "getArbitrator",
      "outputs": [
        {
          "name": "",
          "type": "address"
        }
      ],
      "payable": false,
      "stateMutability": "view",
      "type": "function"
    },
    {
      "constant": true,
      "inputs": [
        {
          "name": "question_id",
          "type": "bytes32"
        }
      ],
      "name": "getOpeningTS",
      "outputs": [
        {
          "name": "",
          "type": "uint32"
        }
      ],
      "payable": false,
      "stateMutability": "view",
      "type": "function"
    },
    {
      "constant": true,
      "inputs": [
        {
          "name": "question_id",
          "type": "bytes32"
        }
      ],
      "name": "getTimeout",
      "outputs": [
        {
          "name": "",
          "type": "uint32"
        }
      ],
      "payable": false,
      "stateMutability": "view",
      "type": "function"
    },
    {
      "constant": true,
      "inputs": [
        {
          "name": "question_id",
          "type": "bytes32"
        }
      ],
      "name": "getFinalizeTS",
      "outputs": [
        {
          "name": "",
          "type": "uint32"
        }
      ],
      "payable": false,
      "stateMutability": "view",
      "type": "function"
    },
    {
      "constant": true,
      "inputs": [
        {
          "name": "question_id",
          "type": "bytes32"
        }
      ],
      "name": "isPendingArbitration",
      "outputs": [
        {
          "name": "",
          "type": "bool"
        }
      ],
      "payable": false,
      "stateMutability": "view",
      "type": "function"
    },
    {
      "constant": true,
      "inputs": [
        {
          "name": "question_id",
          "type": "bytes32"
        }
      ],
      "name": "getBounty",
      "outputs": [
        {
          "name": "",
          "type": "uint256"
        }
      ],
      "payable": false,
      "stateMutability": "view",
      "type": "function"
    },
    {
      "constant": true,
      "inputs": [
        {
          "name": "question_id",
          "type": "bytes32"
        }
      ],
      "name": "getBestAnswer",
      "outputs": [
        {
          "name": "",
          "type": "bytes32"
        }
      ],
      "payable": false,
      "stateMutability": "view",
      "type": "function"
    },
    {
      "constant": true,
      "inputs": [
        {
          "name": "question_id",
          "type": "bytes32"
        }
      ],
      "name": "getHistoryHash",
      "outputs": [
        {
          "name": "",
          "type": "bytes32"
        }
      ],
      "payable": false,
      "stateMutability": "view",
      "type": "function"
    },
    {
      "constant": true,
      "inputs": [
        {
          "name": "question_id",
          "type": "bytes32"
        }
      ],
      "name": "getBond",
      "outputs": [
        {
          "name": "",
          "type": "uint256"
        }
      ],
      "payable": false,
      "stateMutability": "view",
      "type": "function"
    }
  ],
  "bytecode": "0x608060405260006002553480156200001657600080fd5b506200008d606060405190810160405280603f81526020017f7b227469746c65223a20222573222c202274797065223a2022626f6f6c222c2081526020017f2263617465676f7279223a20222573222c20226c616e67223a20222573227d0081525062000308640100000000026401000000009004565b506200012a608060405190810160405280604f81526020017f7b227469746c65223a20222573222c202274797065223a202275696e74222c2081526020017f22646563696d616c73223a2031382c202263617465676f7279223a202225732281526020017f2c20226c616e67223a20222573227d000000000000000000000000000000000081525062000308640100000000026401000000009004565b50620001c7608060405190810160405280605a81526020017f7b227469746c65223a20222573222c202274797065223a202273696e676c652d81526020017f73656c656374222c20226f7574636f6d6573223a205b25735d2c20226361746581526020017f676f7279223a20222573222c20226c616e67223a20222573227d00000000000081525062000308640100000000026401000000009004565b5062000264608060405190810160405280605c81526020017f7b227469746c65223a20222573222c202274797065223a20226d756c7469706c81526020017f652d73656c656374222c20226f7574636f6d6573223a205b25735d2c2022636181526020017f7465676f7279223a20222573222c20226c616e67223a20222573227d0000000081525062000308640100000000026401000000009004565b5062000301608060405190810160405280604381526020017f7b227469746c65223a20222573222c202274797065223a20226461746574696d81526020017f65222c202263617465676f7279223a20222573222c20226c616e67223a20222581526020017f73227d000000000000000000000000000000000000000000000000000000000081525062000308640100000000026401000000009004565b50620004ca565b60025460008181526003602090815260408083204390555184519293928592918201918291908401908083835b60208310620003565780518252601f19909201916020918201910162000335565b6001836020036101000a0380198251168184511680821785525050505050509050019150506040516020818303038152906040526040518082805190602001908083835b60208310620003bb5780518252601f1990920191602091820191016200039a565b51815160209384036101000a6000190180199092169116179052604080519290940182900382206000888152600483528581209190915581835289518383015289513397508896507fb87fb721c0a557bb8dff89a86796466931d82ba530a66a239263eb8735ade2e4958b955084939084019290860191908190849084905b83811015620004545781810151838201526020016200043a565b50505050905090810190601f168015620004825780820380516001836020036101000a031916815260200191505b509250505060405180910390a3620004aa81600164010000000062003cd6620004b382021704565b60025592915050565b600082820183811015620004c357fe5b9392505050565b6148c480620004da6000396000f3006080604052600436106101d45763ffffffff60e060020a6000350416631101a0fd81146101d9578063128b7a47146102e057806312a203c3146102fb578063144fa6d7146103405780632417395c146103615780632518904c1461037957806326d6c97b146103ad57806328828b1e146103c55780632f998a6f146105375780633ccfd60b146105585780634dc266b41461056d5780634df6ca2a1461058e5780634e60f883146105a657806351577ea9146105be578063590158a7146105d65780636fa427421461061657806370a0823114610637578063762c38fd146106585780637f8d429e146106db57806382ffa9f714610707578063839df9451461071f57806383bf46091461075c5780638d552d46146107b5578063924532fb146107cd57806395addb90146107e55780639e63fa6a146108615780639f1025c614610892578063a1130d04146108aa578063a462fb7b14610966578063ac7b2a5f1461097e578063acae8f4e146109ab578063b8eaa980146109c3578063bc525652146109e3578063d09cc57e14610966578063d44e293c146109fb578063d4876b9f14610a30578063ebbdd2b014610ab9578063f6a94ecb14610ad1578063fc0c546a14610af8578063fe92049d14610b0d575b600080fd5b3480156101e557600080fd5b506040805160206004602480358281013584810280870186019097528086526102de96843596369660449591949091019291829185019084908082843750506040805187358901803560208181028481018201909552818452989b9a998901989297509082019550935083925085019084908082843750506040805187358901803560208181028481018201909552818452989b9a998901989297509082019550935083925085019084908082843750506040805187358901803560208181028481018201909552818452989b9a998901989297509082019550935083925085019084908082843750949750610b349650505050505050565b005b3480156102ec57600080fd5b506102de600435602435610e74565b34801561030757600080fd5b5061032e600435602435600160a060020a036044351663ffffffff606435166084356110db565b60408051918252519081900360200190f35b34801561034c57600080fd5b506102de600160a060020a0360043516611314565b34801561036d57600080fd5b5061032e6004356113ca565b34801561038557600080fd5b506103916004356113df565b60408051600160a060020a039092168252519081900360200190f35b3480156103b957600080fd5b5061032e6004356113fd565b3480156103d157600080fd5b50604080516020600480358082013583810280860185019096528085526102de95369593946024949385019291829185019084908082843750506040805187358901803560208181028481018201909552818452989b9a998901989297509082019550935083925085019084908082843750506040805187358901803560208181028481018201909552818452989b9a998901989297509082019550935083925085019084908082843750506040805187358901803560208181028481018201909552818452989b9a998901989297509082019550935083925085019084908082843750506040805187358901803560208181028481018201909552818452989b9a998901989297509082019550935083925085019084908082843750506040805187358901803560208181028481018201909552818452989b9a9989019892975090820195509350839250850190849080828437509497506114129650505050505050565b34801561054357600080fd5b506102de600435602435604435606435611626565b34801561056457600080fd5b506102de611992565b34801561057957600080fd5b506102de600435602435604435606435611a86565b34801561059a57600080fd5b506102de600435611f05565b3480156105b257600080fd5b5061032e600435611f54565b3480156105ca57600080fd5b5061032e600435611f66565b3480156105e257600080fd5b506105ee600435611f78565b60408051600160a060020a039094168452602084019290925282820152519081900360600190f35b34801561062257600080fd5b5061032e600160a060020a0360043516611fa3565b34801561064357600080fd5b5061032e600160a060020a0360043516611fb5565b34801561066457600080fd5b5060408051602060046024803582810135601f810185900485028601850190965285855261032e95833595369560449491939091019190819084018382808284375094975050508335600160a060020a03169450505050602081013563ffffffff9081169160408101359091169060600135611fc7565b3480156106e757600080fd5b506106f36004356122ed565b604080519115158252519081900360200190f35b34801561071357600080fd5b5061032e60043561234a565b34801561072b57600080fd5b50610737600435612360565b6040805163ffffffff9094168452911515602084015282820152519081900360600190f35b34801561076857600080fd5b506040805160206004803580820135601f810184900484028501840190955284845261032e94369492936024939284019190819084018382808284375094975061238d9650505050505050565b3480156107c157600080fd5b5061032e600435612527565b3480156107d957600080fd5b506106f360043561253c565b3480156107f157600080fd5b506107fd600435612554565b604080519a8b52600160a060020a0390991660208b015263ffffffff9788168a8a015295871660608a015293909516608088015290151560a087015260c086015260e085019290925261010084019190915261012083015251908190036101400190f35b34801561086d57600080fd5b506108796004356125c0565b6040805163ffffffff9092168252519081900360200190f35b34801561089e57600080fd5b506108796004356125e2565b3480156108b657600080fd5b506040805160206004803580820135601f810184900484028501840190955284845261032e94369492936024939284019190819084018382808284375050604080516020601f89358b018035918201839004830284018301909452808352979a99988101979196509182019450925082915084018382808284375094975050508335600160a060020a03169450505050602081013563ffffffff9081169160408101359091169060600135612604565b34801561097257600080fd5b5061032e60043561262c565b34801561098a57600080fd5b506102de600435602435604435600160a060020a03606435166084356126a5565b3480156109b757600080fd5b50610879600435612acd565b6102de600435602435604435600160a060020a0360643516608435612aef565b3480156109ef57600080fd5b5061032e600435612ebc565b348015610a0757600080fd5b506102de600435602435600160a060020a03604435811690606435906084359060a43516612ece565b348015610a3c57600080fd5b5060408051602060046024803582810135601f810185900485028601850190965285855261032e95833595369560449491939091019190819084018382808284375094975050600160a060020a0385351695505063ffffffff60208501358116946040810135909116935060608101359250608001359050612ff6565b348015610ac557600080fd5b506102de60043561336b565b348015610add57600080fd5b506102de600435600160a060020a0360243516604435613521565b348015610b0457600080fd5b506103916138e5565b348015610b1957600080fd5b506102de600435602435600160a060020a03604435166138f4565b60008060008060008060008b610b49816122ed565b1515610b9f576040805160e560020a62461bcd02815260206004820152601a60248201527f7175657374696f6e206d7573742062652066696e616c697a6564000000000000604482015290519081900360640190fd5b8b51600010610c1e576040805160e560020a62461bcd02815260206004820152603060248201527f6174206c65617374206f6e6520686973746f7279206861736820656e7472792060448201527f6d7573742062652070726f766964656400000000000000000000000000000000606482015290519081900360840190fd5b60008d81526006602090815260408083208054600182015460029092015460059485905292852093840154600490940154600160a060020a039091169c50909a50909850909650945092505b8b51831015610d9557610cdc858d85815181101515610c8557fe5b906020019060200201518b86815181101515610c9d57fe5b906020019060200201518d87815181101515610cb557fe5b906020019060200201518f88815181101515610ccd57fe5b90602001906020020151613ac0565b9150610cee868863ffffffff613cd616565b9550610d458d85888b8f88815181101515610d0557fe5b906020019060200201518f89815181101515610d1d57fe5b906020019060200201518f8a815181101515610d3557fe5b9060200190602002015189613cf0565b8099508197505050610d6e8d8b85815181101515610d5f57fe5b90602001906020020151613e20565b96508b83815181101515610d7e57fe5b602090810290910101519450600190920191610c6a565b8415610e0057600160a060020a03881615610dba57610db58d8988613eab565b600095505b60008d8152600660205260409020805473ffffffffffffffffffffffffffffffffffffffff1916600160a060020a038a1617815560018101889055600201869055610e4f565b610e1a8d89610e15898b63ffffffff613cd616565b613eab565b60008d8152600660205260408120805473ffffffffffffffffffffffffffffffffffffffff1916815560018101829055600201555b5050506000998a52506005602081905260409099209098019790975550505050505050565b600082815260056020526040812060010154839190819060c060020a900463ffffffff168110610edc576040805160e560020a62461bcd02815260206004820152601360248201526000805160206147b9833981519152604482015290519081900360640190fd5b60008381526005602052604090206002015460ff1615610f48576040805160e560020a62461bcd028152602060048201526028602482015260008051602061481983398151915260448201526000805160206147d9833981519152606482015290519081900360840190fd5b60008381526005602052604090206001015460e060020a900463ffffffff169150811580610f8157504263ffffffff168263ffffffff16115b1515610fd9576040805160e560020a62461bcd02815260206004820152602a60248201526000805160206148398339815191526044820152600080516020614879833981519152606482015290519081900360840190fd5b5060008281526005602052604090206001015460a060020a900463ffffffff1680158061101257504263ffffffff168163ffffffff1611155b1515611056576040805160e560020a62461bcd02815260206004820152601d6024820152600080516020614859833981519152604482015290519081900360640190fd5b61105f84613f2e565b600085815260056020526040902060030154611081908563ffffffff613cd616565b6000868152600560209081526040918290206003018390558151878152908101929092528051339288927f54d68405b79f2aa4fd4e8db7b67844ad254cf8f208aac476c2894134a9deab6692918290030190a35050505050565b6000856110e7816122ed565b151561113d576040805160e560020a62461bcd02815260206004820152601a60248201527f7175657374696f6e206d7573742062652066696e616c697a6564000000000000604482015290519081900360640190fd5b60008781526005602052604090205486146111a2576040805160e560020a62461bcd02815260206004820152601760248201527f636f6e74656e742068617368206d757374206d61746368000000000000000000604482015290519081900360640190fd5b600087815260056020526040902060010154600160a060020a03868116911614611216576040805160e560020a62461bcd02815260206004820152601560248201527f61726269747261746f72206d757374206d617463680000000000000000000000604482015290519081900360640190fd5b60008781526005602052604090206001015463ffffffff60c060020a90910481169085161115611290576040805160e560020a62461bcd02815260206004820152601b60248201527f74696d656f7574206d757374206265206c6f6e6720656e6f7567680000000000604482015290519081900360640190fd5b6000878152600560205260409020600601548311156112f9576040805160e560020a62461bcd02815260206004820152601860248201527f626f6e64206d757374206265206869676820656e6f7567680000000000000000604482015290519081900360640190fd5b50505060009384525050600560205250604090206004015490565b600054600160a060020a03161561139b576040805160e560020a62461bcd02815260206004820152602260248201527f546f6b656e2063616e206f6e6c7920626520696e697469616c697a6564206f6e60448201527f6365000000000000000000000000000000000000000000000000000000000000606482015290519081900360840190fd5b6000805473ffffffffffffffffffffffffffffffffffffffff1916600160a060020a0392909216919091179055565b60009081526005602052604090206003015490565b600090815260056020526040902060010154600160a060020a031690565b60009081526005602052604090206006015490565b60008080806060808080845b8e5189101561160d578e8981518110151561143557fe5b9060200190602002015196508d8981518110151561144f57fe5b90602001906020020151955085604051908082528060200260200182016040528015611485578160200160208202803883390190505b509450856040519080825280602002602001820160405280156114b2578160200160208202803883390190505b509350856040519080825280602002602001820160405280156114df578160200160208202803883390190505b5092508560405190808252806020026020018201604052801561150c578160200160208202803883390190505b509150600090505b858110156115f5578c8881518110151561152a57fe5b90602001906020020151858281518110151561154257fe5b602090810290910101528b518c908990811061155a57fe5b90602001906020020151848281518110151561157257fe5b600160a060020a039092166020928302909101909101528a518b908990811061159757fe5b9060200190602002015183828151811015156115af57fe5b6020908102909101015289518a90899081106115c757fe5b9060200190602002015182828151811015156115df57fe5b6020908102909101015260019788019701611514565b6116028786868686610b34565b60019098019761141e565b611615611992565b505050505050505050505050505050565b600084815260056020526040812060010154859190819060c060020a900463ffffffff16811061168e576040805160e560020a62461bcd02815260206004820152601360248201526000805160206147b9833981519152604482015290519081900360640190fd5b60008381526005602052604090206002015460ff16156116fa576040805160e560020a62461bcd028152602060048201526028602482015260008051602061481983398151915260448201526000805160206147d9833981519152606482015290519081900360840190fd5b60008381526005602052604090206001015460e060020a900463ffffffff16915081158061173357504263ffffffff168263ffffffff16115b151561178b576040805160e560020a62461bcd02815260206004820152602a60248201526000805160206148398339815191526044820152600080516020614879833981519152606482015290519081900360840190fd5b5060008281526005602052604090206001015460a060020a900463ffffffff168015806117c457504263ffffffff168163ffffffff1611155b1515611808576040805160e560020a62461bcd02815260206004820152601d6024820152600080516020614859833981519152604482015290519081900360640190fd5b868460008111611862576040805160e560020a62461bcd02815260206004820152601560248201527f626f6e64206d75737420626520706f7369746976650000000000000000000000604482015290519081900360640190fd5b60008281526005602052604090206006015461188590600263ffffffff6140c416565b811015611902576040805160e560020a62461bcd02815260206004820152602a60248201527f626f6e64206d75737420626520646f75626c65206174206c656173742070726560448201527f76696f757320626f6e6400000000000000000000000000000000000000000000606482015290519081900360840190fd5b8887600081111561196457600082815260056020526040902060060154811015611964576040805160e560020a62461bcd02815260206004820152601d60248201526000805160206147f9833981519152604482015290519081900360640190fd5b61196d88613f2e565b61197b8b8b338b60006140ef565b6119858b8b614268565b5050505050505050505050565b336000818152600160209081526040808320805490849055835482517fa9059cbb00000000000000000000000000000000000000000000000000000000815260048101969096526024860182905291519094600160a060020a039092169363a9059cbb93604480850194919392918390030190829087803b158015611a1657600080fd5b505af1158015611a2a573d6000803e3d6000fd5b505050506040513d6020811015611a4057600080fd5b50511515611a4d57600080fd5b60408051828152905133917f4ce7033d118120e254016dccf195288400b28fc8936425acd5f17ce2df3ab708919081900360200190a250565b600084815260056020526040812060010154819086908290819060c060020a900463ffffffff168110611af1576040805160e560020a62461bcd02815260206004820152601360248201526000805160206147b9833981519152604482015290519081900360640190fd5b60008381526005602052604090206001015460e060020a900463ffffffff169150811580611b2a57504263ffffffff168263ffffffff16115b1515611ba6576040805160e560020a62461bcd02815260206004820152602960248201527f66696e616c697a6174696f6e206465616c696e65206d757374206e6f7420686160448201527f7665207061737365640000000000000000000000000000000000000000000000606482015290519081900360840190fd5b5060008281526005602052604090206001015460a060020a900463ffffffff16801580611bdf57504263ffffffff168163ffffffff1611155b1515611c23576040805160e560020a62461bcd02815260206004820152601d6024820152600080516020614859833981519152604482015290519081900360640190fd5b6040805160208082018b90528183018a9052825180830384018152606090920192839052815191929182918401908083835b60208310611c745780518252601f199092019160209182019101611c55565b6001836020036101000a03801982511681845116808217855250505050505090500191505060405180910390209450888587604051602001808460001916600019168152602001836000191660001916815260200182815260200193505050506040516020818303038152906040526040518082805190602001908083835b60208310611d125780518252601f199092019160209182019101611cf3565b51815160209384036101000a60001901801990921691161790526040805192909401829003909120600081815260079092529290205491975050640100000000900460ff16159150611dd69050576040805160e560020a62461bcd02815260206004820152602a60248201527f636f6d6d69746d656e74206d757374206e6f742068617665206265656e20726560448201527f7665616c65642079657400000000000000000000000000000000000000000000606482015290519081900360840190fd5b60008481526007602052604090205463ffffffff428116911611611e69576040805160e560020a62461bcd028152602060048201526024808201527f72657665616c20646561646c696e65206d757374206e6f74206861766520706160448201527f7373656400000000000000000000000000000000000000000000000000000000606482015290519081900360840190fd5b6000848152600760209081526040808320600181018c9055805464ff0000000019166401000000001790558b83526005909152902060060154861415611eb357611eb38989614268565b60408051898152602081018990528082018890529051869133918c917fa7b2d313bc7a062e30b2c3b811aa4c9faf09755a6b4ea3bf42deff920944332f919081900360600190a4505050505050505050565b336000818152600860209081526040918290208490558151928352820183905280517fdca703d022171824d3d639b33c1525fd2338120b4cfb89507c0b59596893acda9281900390910190a150565b60046020526000908152604090205481565b60009081526005602052604090205490565b600660205260009081526040902080546001820154600290920154600160a060020a03909116919083565b60086020526000908152604090205481565b60016020526000908152604090205481565b600086815260036020526040812054819081908110612030576040805160e560020a62461bcd02815260206004820152601360248201527f74656d706c617465206d75737420657869737400000000000000000000000000604482015290519081900360640190fd5b888589604051602001808481526020018363ffffffff1663ffffffff1660e060020a02815260040182805190602001908083835b602083106120835780518252601f199092019160209182019101612064565b6001836020036101000a03801982511681845116808217855250505050505090500193505050506040516020818303038152906040526040518082805190602001908083835b602083106120e85780518252601f1990920191602091820191016120c9565b51815160209384036101000a600019018019909216911617905260408051929094018290038220828201819052600160a060020a038e166c010000000000000000000000009081028487015263ffffffff8e1660e060020a02605485015233026058840152606c8084018c905285518085039091018152608c9093019485905282519098509195509293508392850191508083835b6020831061219c5780518252601f19909201916020918201910161217d565b6001836020036101000a038019825116818451168082178552505050505050905001915050604051809103902090506121da818389898960006142eb565b816000191633600160a060020a031682600019167ffe2dac156a3890636ce13f65f4fdf41dcaee11526e4a5374531572d92194796c8c8c8c8c8c8c42604051808881526020018060200187600160a060020a0316600160a060020a031681526020018663ffffffff1663ffffffff1681526020018563ffffffff1663ffffffff168152602001848152602001838152602001828103825288818151815260200191508051906020019080838360005b838110156122a1578181015183820152602001612289565b50505050905090810190601f1680156122ce5780820380516001836020036101000a031916815260200191505b509850505050505050505060405180910390a498975050505050505050565b6000818152600560205260408120600181015460029091015460e060020a90910463ffffffff169060ff1615801561232b5750600063ffffffff8216115b801561234357504263ffffffff168163ffffffff1611155b9392505050565b6000908152600560208190526040909120015490565b6007602052600090815260409020805460019091015463ffffffff821691640100000000900460ff169083565b60025460008181526003602090815260408083204390555184519293928592918201918291908401908083835b602083106123d95780518252601f1990920191602091820191016123ba565b6001836020036101000a0380198251168184511680821785525050505050509050019150506040516020818303038152906040526040518082805190602001908083835b6020831061243c5780518252601f19909201916020918201910161241d565b51815160209384036101000a6000190180199092169116179052604080519290940182900382206000888152600483528581209190915581835289518383015289513397508896507fb87fb721c0a557bb8dff89a86796466931d82ba530a66a239263eb8735ade2e4958b955084939084019290860191908190849084905b838110156124d35781810151838201526020016124bb565b50505050905090810190601f1680156125005780820380516001836020036101000a031916815260200191505b509250505060405180910390a361251e81600163ffffffff613cd616565b60025592915050565b60009081526005602052604090206004015490565b60009081526005602052604090206002015460ff1690565b600560208190526000918252604090912080546001820154600283015460038401546004850154958501546006909501549395600160a060020a0384169563ffffffff60a060020a860481169660c060020a870482169660e060020a90049091169460ff16939291908a565b60009081526005602052604090206001015460a060020a900463ffffffff1690565b60009081526005602052604090206001015460c060020a900463ffffffff1690565b6000806126108861238d565b9050612620818888888888611fc7565b98975050505050505050565b600081612638816122ed565b151561268e576040805160e560020a62461bcd02815260206004820152601a60248201527f7175657374696f6e206d7573742062652066696e616c697a6564000000000000604482015290519081900360640190fd5b505060009081526005602052604090206004015490565b600085815260056020526040812060010154819087908290819060c060020a900463ffffffff168110612710576040805160e560020a62461bcd02815260206004820152601360248201526000805160206147b9833981519152604482015290519081900360640190fd5b60008381526005602052604090206002015460ff161561277c576040805160e560020a62461bcd028152602060048201526028602482015260008051602061481983398151915260448201526000805160206147d9833981519152606482015290519081900360840190fd5b60008381526005602052604090206001015460e060020a900463ffffffff1691508115806127b557504263ffffffff168263ffffffff16115b151561280d576040805160e560020a62461bcd02815260206004820152602a60248201526000805160206148398339815191526044820152600080516020614879833981519152606482015290519081900360840190fd5b5060008281526005602052604090206001015460a060020a900463ffffffff1680158061284657504263ffffffff168163ffffffff1611155b151561288a576040805160e560020a62461bcd02815260206004820152601d6024820152600080516020614859833981519152604482015290519081900360640190fd5b8986600081116128e4576040805160e560020a62461bcd02815260206004820152601560248201527f626f6e64206d75737420626520706f7369746976650000000000000000000000604482015290519081900360640190fd5b60008281526005602052604090206006015461290790600263ffffffff6140c416565b811015612984576040805160e560020a62461bcd02815260206004820152602a60248201527f626f6e64206d75737420626520646f75626c65206174206c656173742070726560448201527f76696f757320626f6e6400000000000000000000000000000000000000000000606482015290519081900360840190fd5b8b8a60008111156129e6576000828152600560205260409020600601548110156129e6576040805160e560020a62461bcd02815260206004820152601d60248201526000805160206147f9833981519152604482015290519081900360640190fd5b6129ef8a613f2e565b8d8d8b604051602001808460001916600019168152602001836000191660001916815260200182815260200193505050506040516020818303038152906040526040518082805190602001908083835b60208310612a5e5780518252601f199092019160209182019101612a3f565b5181516020939093036101000a600019018019909116921691909117905260405192018290039091209b50505050600160a060020a038b1615612aa1578a612aa3565b335b9750612aaf8e8a61464e565b612abd8e8a8a8d60016140ef565b5050505050505050505050505050565b60009081526005602052604090206001015460e060020a900463ffffffff1690565b600085815260056020526040812060010154869190819060c060020a900463ffffffff168110612b57576040805160e560020a62461bcd02815260206004820152601360248201526000805160206147b9833981519152604482015290519081900360640190fd5b60008381526005602052604090206002015460ff1615612bc3576040805160e560020a62461bcd028152602060048201526028602482015260008051602061481983398151915260448201526000805160206147d9833981519152606482015290519081900360840190fd5b60008381526005602052604090206001015460e060020a900463ffffffff169150811580612bfc57504263ffffffff168263ffffffff16115b1515612c54576040805160e560020a62461bcd02815260206004820152602a60248201526000805160206148398339815191526044820152600080516020614879833981519152606482015290519081900360840190fd5b5060008281526005602052604090206001015460a060020a900463ffffffff16801580612c8d57504263ffffffff168163ffffffff1611155b1515612cd1576040805160e560020a62461bcd02815260206004820152601d6024820152600080516020614859833981519152604482015290519081900360640190fd5b878460008111612d2b576040805160e560020a62461bcd02815260206004820152601560248201527f626f6e64206d75737420626520706f7369746976650000000000000000000000604482015290519081900360640190fd5b600082815260056020526040902060060154612d4e90600263ffffffff6140c416565b811015612dcb576040805160e560020a62461bcd02815260206004820152602a60248201527f626f6e64206d75737420626520646f75626c65206174206c656173742070726560448201527f76696f757320626f6e6400000000000000000000000000000000000000000000606482015290519081900360840190fd5b89886000811115612e2d57600082815260056020526040902060060154811015612e2d576040805160e560020a62461bcd02815260206004820152601d60248201526000805160206147f9833981519152604482015290519081900360640190fd5b612e3688613f2e565b600160a060020a0389161515612e96576040805160e560020a62461bcd02815260206004820152601960248201527f616e737765726572206d757374206265206e6f6e2d7a65726f00000000000000604482015290519081900360640190fd5b612ea48c8c8b8b60006140ef565b612eae8c8c614268565b505050505050505050505050565b60036020526000908152604090205481565b60008681526005602081905260408220908101546006909101548291612ef8918790879087613ac0565b9150818015612f1e5750600084815260076020526040902054640100000000900460ff16155b15612fbe5760008481526007602052604090205463ffffffff428116911610612fb7576040805160e560020a62461bcd02815260206004820152603760248201527f596f75206d757374207761697420666f72207468652072657665616c2064656160448201527f646c696e65206265666f72652066696e616c697a696e67000000000000000000606482015290519081900360840190fd5b5084612fe1565b6000888152600560205260409020600401548714612fdc5785612fde565b825b90505b612fec8888836138f4565b5050505050505050565b600080600061300484613f2e565b60008a81526003602052604081205411613068576040805160e560020a62461bcd02815260206004820152601360248201527f74656d706c617465206d75737420657869737400000000000000000000000000604482015290519081900360640190fd5b89868a604051602001808481526020018363ffffffff1663ffffffff1660e060020a02815260040182805190602001908083835b602083106130bb5780518252601f19909201916020918201910161309c565b6001836020036101000a03801982511681845116808217855250505050505090500193505050506040516020818303038152906040526040518082805190602001908083835b602083106131205780518252601f199092019160209182019101613101565b6001836020036101000a03801982511681845116808217855250505050505090500191505060405180910390209150818888338860405160200180866000191660001916815260200185600160a060020a0316600160a060020a03166c010000000000000000000000000281526014018463ffffffff1663ffffffff1660e060020a02815260040183600160a060020a0316600160a060020a03166c01000000000000000000000000028152601401828152602001955050505050506040516020818303038152906040526040518082805190602001908083835b6020831061321a5780518252601f1990920191602091820191016131fb565b6001836020036101000a0380198251168184511680821785525050505050509050019150506040518091039020905061325781838a8a8a896142eb565b816000191633600160a060020a031682600019167ffe2dac156a3890636ce13f65f4fdf41dcaee11526e4a5374531572d92194796c8d8d8d8d8d8d42604051808881526020018060200187600160a060020a0316600160a060020a031681526020018663ffffffff1663ffffffff1681526020018563ffffffff1663ffffffff168152602001848152602001838152602001828103825288818151815260200191508051906020019080838360005b8381101561331e578181015183820152602001613306565b50505050905090810190601f16801561334b5780820380516001836020036101000a031916815260200191505b509850505050505050505060405180910390a49998505050505050505050565b6000818152600560205260409020600101548190600160a060020a031633146133de576040805160e560020a62461bcd02815260206004820152601d60248201527f6d73672e73656e646572206d7573742062652061726269747261746f72000000604482015290519081900360640190fd5b600082815260056020526040902060020154829060ff161515613470576040805160e560020a62461bcd028152602060048201526024808201527f7175657374696f6e206d7573742062652070656e64696e67206172626974726160448201527f74696f6e00000000000000000000000000000000000000000000000000000000606482015290519081900360840190fd5b600083815260056020526040902060028101805460ff19169055600101546134ab9063ffffffff4281169160c060020a900481169061474216565b600084815260056020526040808220600101805463ffffffff9490941660e060020a027bffffffffffffffffffffffffffffffffffffffffffffffffffffffff90941693909317909255905184917f71bf7c2b9df0b8818e7eb6746a5bf69699ebbab041f3795f9ed58e469afa9a3a91a2505050565b6000838152600560205260409020600101548390600160a060020a03163314613594576040805160e560020a62461bcd02815260206004820152601d60248201527f6d73672e73656e646572206d7573742062652061726269747261746f72000000604482015290519081900360640190fd5b600084815260056020526040812060010154859190819060c060020a900463ffffffff1681106135fc576040805160e560020a62461bcd02815260206004820152601360248201526000805160206147b9833981519152604482015290519081900360640190fd5b60008381526005602052604090206002015460ff1615613668576040805160e560020a62461bcd028152602060048201526028602482015260008051602061481983398151915260448201526000805160206147d9833981519152606482015290519081900360840190fd5b60008381526005602052604090206001015460e060020a900463ffffffff1691508115806136a157504263ffffffff168263ffffffff16115b15156136f9576040805160e560020a62461bcd02815260206004820152602a60248201526000805160206148398339815191526044820152600080516020614879833981519152606482015290519081900360840190fd5b5060008281526005602052604090206001015460a060020a900463ffffffff1680158061373257504263ffffffff168163ffffffff1611155b1515613776576040805160e560020a62461bcd02815260206004820152601d6024820152600080516020614859833981519152604482015290519081900360640190fd5b868560008111156137d8576000828152600560205260409020600601548110156137d8576040805160e560020a62461bcd02815260206004820152601d60248201526000805160206147f9833981519152604482015290519081900360640190fd5b6000898152600560205260408120600601541161388b576040805160e560020a62461bcd02815260206004820152604260248201527f5175657374696f6e206d75737420616c7265616479206861766520616e20616e60448201527f73776572207768656e206172626974726174696f6e206973207265717565737460648201527f6564000000000000000000000000000000000000000000000000000000000000608482015290519081900360a40190fd5b600089815260056020526040808220600201805460ff1916600117905551600160a060020a038a16918b917f75d7939999bc902187c4aed400872883e445145f1983539166f783fa040b47629190a3505050505050505050565b600054600160a060020a031681565b6000838152600560205260409020600101548390600160a060020a03163314613967576040805160e560020a62461bcd02815260206004820152601d60248201527f6d73672e73656e646572206d7573742062652061726269747261746f72000000604482015290519081900360640190fd5b600084815260056020526040902060020154849060ff1615156139f9576040805160e560020a62461bcd028152602060048201526024808201527f7175657374696f6e206d7573742062652070656e64696e67206172626974726160448201527f74696f6e00000000000000000000000000000000000000000000000000000000606482015290519081900360840190fd5b600160a060020a0383161515613a59576040805160e560020a62461bcd02815260206004820152601960248201527f616e737765726572206d7573742062652070726f766964656400000000000000604482015290519081900360640190fd5b604051849086907f18d760beffe3717270cd90d9d920ec1a48c194e9ad7bba23eb1c92d3eb974f9790600090a36000858152600560205260408120600201805460ff19169055613aaf90869086908690806140ef565b613ab9858561475a565b5050505050565b604080516020808201879052818301869052606082018590526c01000000000000000000000000600160a060020a0385160260808301527f01000000000000000000000000000000000000000000000000000000000000006094830152825160758184030181526095909201928390528151600093918291908401908083835b60208310613b5f5780518252601f199092019160209182019101613b40565b5181516020939093036101000a600019018019909116921691909117905260405192018290039091208914159250613b9c91505057506001613ccd565b604080516020808201889052818301879052606082018690526c01000000000000000000000000600160a060020a0386160260808301526000609483015282516075818403018152609590920192839052815191929182918401908083835b60208310613c1a5780518252601f199092019160209182019101613bfb565b5181516020939093036101000a600019018019909116921691909117905260405192018290039091208914159250613c5791505057506000613ccd565b6040805160e560020a62461bcd02815260206004820152603660248201527f486973746f727920696e7075742070726f766964656420646964206e6f74206d60448201527f6174636820746865206578706563746564206861736800000000000000000000606482015290519081900360840190fd5b95945050505050565b600082820183811015613ce557fe5b8091505b5092915050565b6000806000808415613d7057600086815260076020526040902054869250640100000000900460ff161515613d48576000828152600760205260408120805464ffffffffff1916815560010155899350889250613e11565b6000828152600760205260408120600181018054825464ffffffffff19169092559190915595505b858b1415613e0a57600160a060020a0389161515613dc95760008c8152600560205260409020600301549798508897613db0908b9063ffffffff613cd616565b60008d8152600560205260408120600301559950613e0a565b600160a060020a03888116908a1614613e0a57868a1015613dea5789613dec565b865b9050613e038c8a610e158d8563ffffffff6147a616565b8798508099505b8989935093505b50509850989650505050505050565b60008281526005602052604081206001810154600690910154600160a060020a039091169082908414613ea2575060288304613e5c84826147a6565b600160a060020a038316600090815260016020526040902054909450613e88908263ffffffff613cd616565b600160a060020a0383166000908152600160205260409020555b50919392505050565b600160a060020a038216600090815260016020526040902054613ed4908263ffffffff613cd616565b600160a060020a0383166000818152600160209081526040918290209390935580518481529051919286927f9c121aff33b50c1a53fef034ebec5f83da2d5a5187048f9c76c397ba27c1a1a69281900390910190a3505050565b6000811515613f3c576140c0565b503360009081526001602052604081205490811115613fa457818110613f8157613f6c818363ffffffff6147a616565b336000908152600160205260409020556140c0565b613f91828263ffffffff6147a616565b3360009081526001602052604081205591505b60008054604080517f23b872dd000000000000000000000000000000000000000000000000000000008152336004820152306024820152604481018690529051600160a060020a03909216926323b872dd926064808401936020939083900390910190829087803b15801561401857600080fd5b505af115801561402c573d6000803e3d6000fd5b505050506040513d602081101561404257600080fd5b505115156140c0576040805160e560020a62461bcd02815260206004820152603960248201527f5472616e73666572206f6620746f6b656e73206661696c65642c20696e73756660448201527f66696369656e7420617070726f7665642062616c616e63653f00000000000000606482015290519081900360840190fd5b5050565b6000808315156140d75760009150613ce9565b508282028284828115156140e757fe5b0414613ce557fe5b600085815260056020818152604080842090920154825180830191909152808301889052606081018690526c01000000000000000000000000600160a060020a0388160260808201527f01000000000000000000000000000000000000000000000000000000000000008515150260948201528251607581830301815260959091019283905280519092918291908401908083835b602083106141a35780518252601f199092019160209182019101614184565b6001836020036101000a0380198251168184511680821785525050505050509050019150506040518091039020905060008311156141f05760008681526005602052604090206006018390555b600086815260056020818152604092839020909101839055815187815290810183905280820185905242606082015283151560808201529051600160a060020a0386169188917fe47ca4ebbbc2990134d1168821f38c5e177f3d5ee564bffeadeaa351905e62219181900360a00190a3505050505050565b6000828152600560205260409020600481018290556001015461429e9063ffffffff4281169160c060020a900481169061474216565b600092835260056020526040909220600101805463ffffffff9390931660e060020a027bffffffffffffffffffffffffffffffffffffffffffffffffffffffff9093169290921790915550565b6000868152600560205260408120600101548190889060c060020a900463ffffffff1615614363576040805160e560020a62461bcd02815260206004820152601760248201527f7175657374696f6e206d757374206e6f74206578697374000000000000000000604482015290519081900360640190fd5b839250600063ffffffff8716116143c4576040805160e560020a62461bcd02815260206004820152601860248201527f74696d656f7574206d75737420626520706f7369746976650000000000000000604482015290519081900360640190fd5b6301e1338063ffffffff87161061444b576040805160e560020a62461bcd02815260206004820152602260248201527f74696d656f7574206d757374206265206c657373207468616e2033363520646160448201527f7973000000000000000000000000000000000000000000000000000000000000606482015290519081900360840190fd5b600160a060020a03871615156144ab576040805160e560020a62461bcd02815260206004820152601660248201527f61726269747261746f72206d7573742062652073657400000000000000000000604482015290519081900360640190fd5b33600160a060020a038816146145aa57600160a060020a038716600090815260086020526040902054915081831015614554576040805160e560020a62461bcd02815260206004820152602760248201527f546f6b656e732070726f7669646564206d75737420636f76657220717565737460448201527f696f6e2066656500000000000000000000000000000000000000000000000000606482015290519081900360840190fd5b614564838363ffffffff6147a616565b600160a060020a038816600090815260016020526040902054909350614590908363ffffffff613cd616565b600160a060020a0388166000908152600160205260409020555b50506000968752600560205260409096209485555060018401805473ffffffffffffffffffffffffffffffffffffffff1916600160a060020a03949094169390931777ffffffff0000000000000000000000000000000000000000191660a060020a63ffffffff92831602177fffffffff00000000ffffffffffffffffffffffffffffffffffffffffffffffff1660c060020a929091169190910217905560030155565b60008181526007602052604081205463ffffffff16156146de576040805160e560020a62461bcd02815260206004820152602160248201527f636f6d6d69746d656e74206d757374206e6f7420616c7265616479206578697360448201527f7400000000000000000000000000000000000000000000000000000000000000606482015290519081900360840190fd5b60008381526005602052604090206001015460089060c060020a900463ffffffff1604905061471763ffffffff42811690839061474216565b600092835260076020526040909220805463ffffffff191663ffffffff909316929092179091555050565b600082820163ffffffff8085169082161015613ce557fe5b600091825260056020526040909120600481019190915560010180547bffffffffffffffffffffffffffffffffffffffffffffffffffffffff1660e060020a4263ffffffff1602179055565b6000828211156147b257fe5b5090039056007175657374696f6e206d757374206578697374000000000000000000000000006974726174696f6e000000000000000000000000000000000000000000000000626f6e64206d75737420657863656564206d61785f70726576696f75730000007175657374696f6e206d757374206e6f742062652070656e64696e672061726266696e616c697a6174696f6e20646561646c696e65206d757374206e6f7420686f70656e696e672064617465206d7573742068617665207061737365640000006176652070617373656400000000000000000000000000000000000000000000a165627a7a72305820465d0119549f393dbf20670445aea1d855008132add0db3498c1ae4e4faab7410029",
  "source": "pragma solidity ^0.4.25;\n\nimport './RealitioSafeMath256.sol';\nimport './RealitioSafeMath32.sol';\nimport './BalanceHolderERC20.sol';\n\ncontract RealitioERC20_v2_1 is BalanceHolder {\n\n    using RealitioSafeMath256 for uint256;\n    using RealitioSafeMath32 for uint32;\n\n    address constant NULL_ADDRESS = address(0);\n\n    // History hash when no history is created, or history has been cleared\n    bytes32 constant NULL_HASH = bytes32(0);\n\n    // An unitinalized finalize_ts for a question will indicate an unanswered question.\n    uint32 constant UNANSWERED = 0;\n\n    // An unanswered reveal_ts for a commitment will indicate that it does not exist.\n    uint256 constant COMMITMENT_NON_EXISTENT = 0;\n\n    // Commit->reveal timeout is 1/8 of the question timeout (rounded down).\n    uint32 constant COMMITMENT_TIMEOUT_RATIO = 8;\n\n    // Proportion withheld when you claim an earlier bond.\n    uint256 constant BOND_CLAIM_FEE_PROPORTION = 40; // One 40th ie 2.5%\n\n    event LogSetQuestionFee(\n        address arbitrator,\n        uint256 amount\n    );\n\n    event LogNewTemplate(\n        uint256 indexed template_id,\n        address indexed user, \n        string question_text\n    );\n\n    event LogNewQuestion(\n        bytes32 indexed question_id,\n        address indexed user, \n        uint256 template_id,\n        string question,\n        bytes32 indexed content_hash,\n        address arbitrator, \n        uint32 timeout,\n        uint32 opening_ts,\n        uint256 nonce,\n        uint256 created\n    );\n\n    event LogFundAnswerBounty(\n        bytes32 indexed question_id,\n        uint256 bounty_added,\n        uint256 bounty,\n        address indexed user \n    );\n\n    event LogNewAnswer(\n        bytes32 answer,\n        bytes32 indexed question_id,\n        bytes32 history_hash,\n        address indexed user,\n        uint256 bond,\n        uint256 ts,\n        bool is_commitment\n    );\n\n    event LogAnswerReveal(\n        bytes32 indexed question_id, \n        address indexed user, \n        bytes32 indexed answer_hash, \n        bytes32 answer, \n        uint256 nonce, \n        uint256 bond\n    );\n\n    event LogNotifyOfArbitrationRequest(\n        bytes32 indexed question_id,\n        address indexed user \n    );\n\n    event LogCancelArbitration(\n        bytes32 indexed question_id\n    );\n\n    event LogFinalize(\n        bytes32 indexed question_id,\n        bytes32 indexed answer\n    );\n\n    event LogClaim(\n        bytes32 indexed question_id,\n        address indexed user,\n        uint256 amount\n    );\n\n    struct Question {\n        bytes32 content_hash;\n        address arbitrator;\n        uint32 opening_ts;\n        uint32 timeout;\n        uint32 finalize_ts;\n        bool is_pending_arbitration;\n        uint256 bounty;\n        bytes32 best_answer;\n        bytes32 history_hash;\n        uint256 bond;\n    }\n\n    // Stored in a mapping indexed by commitment_id, a hash of commitment hash, question, bond. \n    struct Commitment {\n        uint32 reveal_ts;\n        bool is_revealed;\n        bytes32 revealed_answer;\n    }\n\n    // Only used when claiming more bonds than fits into a transaction\n    // Stored in a mapping indexed by question_id.\n    struct Claim {\n        address payee;\n        uint256 last_bond;\n        uint256 queued_funds;\n    }\n\n    uint256 nextTemplateID = 0;\n    mapping(uint256 => uint256) public templates;\n    mapping(uint256 => bytes32) public template_hashes;\n    mapping(bytes32 => Question) public questions;\n    mapping(bytes32 => Claim) public question_claims;\n    mapping(bytes32 => Commitment) public commitments;\n    mapping(address => uint256) public arbitrator_question_fees; \n\n    modifier onlyArbitrator(bytes32 question_id) {\n        require(msg.sender == questions[question_id].arbitrator, \"msg.sender must be arbitrator\");\n        _;\n    }\n\n    modifier stateAny() {\n        _;\n    }\n\n    modifier stateNotCreated(bytes32 question_id) {\n        require(questions[question_id].timeout == 0, \"question must not exist\");\n        _;\n    }\n\n    modifier stateOpen(bytes32 question_id) {\n        require(questions[question_id].timeout > 0, \"question must exist\");\n        require(!questions[question_id].is_pending_arbitration, \"question must not be pending arbitration\");\n        uint32 finalize_ts = questions[question_id].finalize_ts;\n        require(finalize_ts == UNANSWERED || finalize_ts > uint32(now), \"finalization deadline must not have passed\");\n        uint32 opening_ts = questions[question_id].opening_ts;\n        require(opening_ts == 0 || opening_ts <= uint32(now), \"opening date must have passed\"); \n        _;\n    }\n\n    modifier statePendingArbitration(bytes32 question_id) {\n        require(questions[question_id].is_pending_arbitration, \"question must be pending arbitration\");\n        _;\n    }\n\n    modifier stateOpenOrPendingArbitration(bytes32 question_id) {\n        require(questions[question_id].timeout > 0, \"question must exist\");\n        uint32 finalize_ts = questions[question_id].finalize_ts;\n        require(finalize_ts == UNANSWERED || finalize_ts > uint32(now), \"finalization dealine must not have passed\");\n        uint32 opening_ts = questions[question_id].opening_ts;\n        require(opening_ts == 0 || opening_ts <= uint32(now), \"opening date must have passed\"); \n        _;\n    }\n\n    modifier stateFinalized(bytes32 question_id) {\n        require(isFinalized(question_id), \"question must be finalized\");\n        _;\n    }\n\n    modifier bondMustDouble(bytes32 question_id, uint256 tokens) {\n        require(tokens > 0, \"bond must be positive\"); \n        require(tokens >= (questions[question_id].bond.mul(2)), \"bond must be double at least previous bond\");\n        _;\n    }\n\n    modifier previousBondMustNotBeatMaxPrevious(bytes32 question_id, uint256 max_previous) {\n        if (max_previous > 0) {\n            require(questions[question_id].bond <= max_previous, \"bond must exceed max_previous\");\n        }\n        _;\n    }\n\n    function setToken(IERC20 _token) \n    public\n    {\n        require(token == IERC20(0x0), \"Token can only be initialized once\");\n        token = _token;\n    }\n\n    /// @notice Constructor, sets up some initial templates\n    /// @dev Creates some generalized templates for different question types used in the DApp.\n    constructor() \n    public {\n        createTemplate('{\"title\": \"%s\", \"type\": \"bool\", \"category\": \"%s\", \"lang\": \"%s\"}');\n        createTemplate('{\"title\": \"%s\", \"type\": \"uint\", \"decimals\": 18, \"category\": \"%s\", \"lang\": \"%s\"}');\n        createTemplate('{\"title\": \"%s\", \"type\": \"single-select\", \"outcomes\": [%s], \"category\": \"%s\", \"lang\": \"%s\"}');\n        createTemplate('{\"title\": \"%s\", \"type\": \"multiple-select\", \"outcomes\": [%s], \"category\": \"%s\", \"lang\": \"%s\"}');\n        createTemplate('{\"title\": \"%s\", \"type\": \"datetime\", \"category\": \"%s\", \"lang\": \"%s\"}');\n    }\n\n    /// @notice Function for arbitrator to set an optional per-question fee. \n    /// @dev The per-question fee, charged when a question is asked, is intended as an anti-spam measure.\n    /// @param fee The fee to be charged by the arbitrator when a question is asked\n    function setQuestionFee(uint256 fee) \n        stateAny() \n    external {\n        arbitrator_question_fees[msg.sender] = fee;\n        emit LogSetQuestionFee(msg.sender, fee);\n    }\n\n    /// @notice Create a reusable template, which should be a JSON document.\n    /// Placeholders should use gettext() syntax, eg %s.\n    /// @dev Template data is only stored in the event logs, but its block number is kept in contract storage.\n    /// @param content The template content\n    /// @return The ID of the newly-created template, which is created sequentially.\n    function createTemplate(string content) \n        stateAny()\n    public returns (uint256) {\n        uint256 id = nextTemplateID;\n        templates[id] = block.number;\n        template_hashes[id] = keccak256(abi.encodePacked(content));\n        emit LogNewTemplate(id, msg.sender, content);\n        nextTemplateID = id.add(1);\n        return id;\n    }\n\n    /// @notice Create a new reusable template and use it to ask a question\n    /// @dev Template data is only stored in the event logs, but its block number is kept in contract storage.\n    /// @param content The template content\n    /// @param question A string containing the parameters that will be passed into the template to make the question\n    /// @param arbitrator The arbitration contract that will have the final word on the answer if there is a dispute\n    /// @param timeout How long the contract should wait after the answer is changed before finalizing on that answer\n    /// @param opening_ts If set, the earliest time it should be possible to answer the question.\n    /// @param nonce A user-specified nonce used in the question ID. Change it to repeat a question.\n    /// @return The ID of the newly-created template, which is created sequentially.\n    function createTemplateAndAskQuestion(\n        string content, \n        string question, address arbitrator, uint32 timeout, uint32 opening_ts, uint256 nonce \n    ) \n        // stateNotCreated is enforced by the internal _askQuestion\n    public returns (bytes32) {\n        uint256 template_id = createTemplate(content);\n        return askQuestion(template_id, question, arbitrator, timeout, opening_ts, nonce);\n    }\n\n    /// @notice Ask a new question without a bounty and return the ID\n    /// @dev Template data is only stored in the event logs, but its block number is kept in contract storage.\n    /// @dev Calling without the token param will only work if there is no arbitrator-set question fee.\n    /// @dev This has the same function signature as askQuestion() in the non-ERC20 version, which is optionally payable.\n    /// @param template_id The ID number of the template the question will use\n    /// @param question A string containing the parameters that will be passed into the template to make the question\n    /// @param arbitrator The arbitration contract that will have the final word on the answer if there is a dispute\n    /// @param timeout How long the contract should wait after the answer is changed before finalizing on that answer\n    /// @param opening_ts If set, the earliest time it should be possible to answer the question.\n    /// @param nonce A user-specified nonce used in the question ID. Change it to repeat a question.\n    /// @return The ID of the newly-created question, created deterministically.\n    function askQuestion(uint256 template_id, string question, address arbitrator, uint32 timeout, uint32 opening_ts, uint256 nonce) \n        // stateNotCreated is enforced by the internal _askQuestion\n    public returns (bytes32) {\n\n        require(templates[template_id] > 0, \"template must exist\");\n\n        bytes32 content_hash = keccak256(abi.encodePacked(template_id, opening_ts, question));\n        bytes32 question_id = keccak256(abi.encodePacked(content_hash, arbitrator, timeout, msg.sender, nonce));\n\n        _askQuestion(question_id, content_hash, arbitrator, timeout, opening_ts, 0);\n        emit LogNewQuestion(question_id, msg.sender, template_id, question, content_hash, arbitrator, timeout, opening_ts, nonce, now);\n\n        return question_id;\n    }\n\n    /// @notice Ask a new question with a bounty and return the ID\n    /// @dev Template data is only stored in the event logs, but its block number is kept in contract storage.\n    /// @param template_id The ID number of the template the question will use\n    /// @param question A string containing the parameters that will be passed into the template to make the question\n    /// @param arbitrator The arbitration contract that will have the final word on the answer if there is a dispute\n    /// @param timeout How long the contract should wait after the answer is changed before finalizing on that answer\n    /// @param opening_ts If set, the earliest time it should be possible to answer the question.\n    /// @param nonce A user-specified nonce used in the question ID. Change it to repeat a question.\n    /// @param tokens The combined initial question bounty and question fee\n    /// @return The ID of the newly-created question, created deterministically.\n    function askQuestionERC20(uint256 template_id, string question, address arbitrator, uint32 timeout, uint32 opening_ts, uint256 nonce, uint256 tokens) \n        // stateNotCreated is enforced by the internal _askQuestion\n    public returns (bytes32) {\n\n        _deductTokensOrRevert(tokens);\n\n        require(templates[template_id] > 0, \"template must exist\");\n\n        bytes32 content_hash = keccak256(abi.encodePacked(template_id, opening_ts, question));\n        bytes32 question_id = keccak256(abi.encodePacked(content_hash, arbitrator, timeout, msg.sender, nonce));\n\n        _askQuestion(question_id, content_hash, arbitrator, timeout, opening_ts, tokens);\n        emit LogNewQuestion(question_id, msg.sender, template_id, question, content_hash, arbitrator, timeout, opening_ts, nonce, now);\n\n        return question_id;\n    }\n\n    function _deductTokensOrRevert(uint256 tokens) \n    internal {\n\n        if (tokens == 0) {\n            return;\n        }\n\n        uint256 bal = balanceOf[msg.sender];\n\n        // Deduct any tokens you have in your internal balance first\n        if (bal > 0) {\n            if (bal >= tokens) {\n                balanceOf[msg.sender] = bal.sub(tokens);\n                return;\n            } else {\n                tokens = tokens.sub(bal);\n                balanceOf[msg.sender] = 0;\n            }\n        }\n        // Now we need to charge the rest from \n        require(token.transferFrom(msg.sender, address(this), tokens), \"Transfer of tokens failed, insufficient approved balance?\");\n        return;\n\n    }\n\n    function _askQuestion(bytes32 question_id, bytes32 content_hash, address arbitrator, uint32 timeout, uint32 opening_ts, uint256 tokens) \n        stateNotCreated(question_id)\n    internal {\n\n        uint256 bounty = tokens;\n\n        // A timeout of 0 makes no sense, and we will use this to check existence\n        require(timeout > 0, \"timeout must be positive\"); \n        require(timeout < 365 days, \"timeout must be less than 365 days\"); \n        require(arbitrator != NULL_ADDRESS, \"arbitrator must be set\");\n\n        // The arbitrator can set a fee for asking a question. \n        // This is intended as an anti-spam defence.\n        // The fee is waived if the arbitrator is asking the question.\n        // This allows them to set an impossibly high fee and make users proxy the question through them.\n        // This would allow more sophisticated pricing, question whitelisting etc.\n        if (msg.sender != arbitrator) {\n            uint256 question_fee = arbitrator_question_fees[arbitrator];\n            require(bounty >= question_fee, \"Tokens provided must cover question fee\"); \n            bounty = bounty.sub(question_fee);\n            balanceOf[arbitrator] = balanceOf[arbitrator].add(question_fee);\n        }\n\n        questions[question_id].content_hash = content_hash;\n        questions[question_id].arbitrator = arbitrator;\n        questions[question_id].opening_ts = opening_ts;\n        questions[question_id].timeout = timeout;\n        questions[question_id].bounty = bounty;\n\n    }\n\n    /// @notice Add funds to the bounty for a question\n    /// @dev Add bounty funds after the initial question creation. Can be done any time until the question is finalized.\n    /// @param question_id The ID of the question you wish to fund\n    /// @param tokens The number of tokens to fund\n    function fundAnswerBountyERC20(bytes32 question_id, uint256 tokens) \n        stateOpen(question_id)\n    external {\n        _deductTokensOrRevert(tokens);\n        questions[question_id].bounty = questions[question_id].bounty.add(tokens);\n        emit LogFundAnswerBounty(question_id, tokens, questions[question_id].bounty, msg.sender);\n    }\n\n    /// @notice Submit an answer for a question.\n    /// @dev Adds the answer to the history and updates the current \"best\" answer.\n    /// May be subject to front-running attacks; Substitute submitAnswerCommitment()->submitAnswerReveal() to prevent them.\n    /// @param question_id The ID of the question\n    /// @param answer The answer, encoded into bytes32\n    /// @param max_previous If specified, reverts if a bond higher than this was submitted after you sent your transaction.\n    /// @param tokens The amount of tokens to submit\n    function submitAnswerERC20(bytes32 question_id, bytes32 answer, uint256 max_previous, uint256 tokens) \n        stateOpen(question_id)\n        bondMustDouble(question_id, tokens)\n        previousBondMustNotBeatMaxPrevious(question_id, max_previous)\n    external {\n        _deductTokensOrRevert(tokens);\n        _addAnswerToHistory(question_id, answer, msg.sender, tokens, false);\n        _updateCurrentAnswer(question_id, answer);\n    }\n\n\n    /// @notice Submit an answer for a question, crediting it to the specified account.\n    /// @dev Adds the answer to the history and updates the current \"best\" answer.\n    /// May be subject to front-running attacks; Substitute submitAnswerCommitment()->submitAnswerReveal() to prevent them.\n    /// @param question_id The ID of the question\n    /// @param answer The answer, encoded into bytes32\n    /// @param max_previous If specified, reverts if a bond higher than this was submitted after you sent your transaction.\n    /// @param answerer The account to which the answer should be credited\n    /// @param tokens The amount of tokens to submit\n    function submitAnswerForERC20(bytes32 question_id, bytes32 answer, uint256 max_previous, address answerer, uint256 tokens)\n        stateOpen(question_id)\n        bondMustDouble(question_id, tokens)\n        previousBondMustNotBeatMaxPrevious(question_id, max_previous)\n    external payable {\n        _deductTokensOrRevert(tokens);\n        require(answerer != NULL_ADDRESS, \"answerer must be non-zero\");\n        _addAnswerToHistory(question_id, answer, answerer, tokens, false);\n        _updateCurrentAnswer(question_id, answer);\n    }\n\n    // @notice Verify and store a commitment, including an appropriate timeout\n    // @param question_id The ID of the question to store\n    // @param commitment The ID of the commitment\n    function _storeCommitment(bytes32 question_id, bytes32 commitment_id) \n    internal\n    {\n        require(commitments[commitment_id].reveal_ts == COMMITMENT_NON_EXISTENT, \"commitment must not already exist\");\n\n        uint32 commitment_timeout = questions[question_id].timeout / COMMITMENT_TIMEOUT_RATIO;\n        commitments[commitment_id].reveal_ts = uint32(now).add(commitment_timeout);\n    }\n\n    /// @notice Submit the hash of an answer, laying your claim to that answer if you reveal it in a subsequent transaction.\n    /// @dev Creates a hash, commitment_id, uniquely identifying this answer, to this question, with this bond.\n    /// The commitment_id is stored in the answer history where the answer would normally go.\n    /// Does not update the current best answer - this is left to the later submitAnswerReveal() transaction.\n    /// @param question_id The ID of the question\n    /// @param answer_hash The hash of your answer, plus a nonce that you will later reveal\n    /// @param max_previous If specified, reverts if a bond higher than this was submitted after you sent your transaction.\n    /// @param _answerer If specified, the address to be given as the question answerer. Defaults to the sender.\n    /// @param tokens Number of tokens sent\n    /// @dev Specifying the answerer is useful if you want to delegate the commit-and-reveal to a third-party.\n    function submitAnswerCommitmentERC20(bytes32 question_id, bytes32 answer_hash, uint256 max_previous, address _answerer, uint256 tokens) \n        stateOpen(question_id)\n        bondMustDouble(question_id, tokens)\n        previousBondMustNotBeatMaxPrevious(question_id, max_previous)\n    external {\n\n        _deductTokensOrRevert(tokens);\n\n        bytes32 commitment_id = keccak256(abi.encodePacked(question_id, answer_hash, tokens));\n        address answerer = (_answerer == NULL_ADDRESS) ? msg.sender : _answerer;\n\n        _storeCommitment(question_id, commitment_id);\n        _addAnswerToHistory(question_id, commitment_id, answerer, tokens, true);\n\n    }\n\n    /// @notice Submit the answer whose hash you sent in a previous submitAnswerCommitment() transaction\n    /// @dev Checks the parameters supplied recreate an existing commitment, and stores the revealed answer\n    /// Updates the current answer unless someone has since supplied a new answer with a higher bond\n    /// msg.sender is intentionally not restricted to the user who originally sent the commitment; \n    /// For example, the user may want to provide the answer+nonce to a third-party service and let them send the tx\n    /// NB If we are pending arbitration, it will be up to the arbitrator to wait and see any outstanding reveal is sent\n    /// @param question_id The ID of the question\n    /// @param answer The answer, encoded as bytes32\n    /// @param nonce The nonce that, combined with the answer, recreates the answer_hash you gave in submitAnswerCommitment()\n    /// @param bond The bond that you paid in your submitAnswerCommitment() transaction\n    function submitAnswerReveal(bytes32 question_id, bytes32 answer, uint256 nonce, uint256 bond) \n        stateOpenOrPendingArbitration(question_id)\n    external {\n\n        bytes32 answer_hash = keccak256(abi.encodePacked(answer, nonce));\n        bytes32 commitment_id = keccak256(abi.encodePacked(question_id, answer_hash, bond));\n\n        require(!commitments[commitment_id].is_revealed, \"commitment must not have been revealed yet\");\n        require(commitments[commitment_id].reveal_ts > uint32(now), \"reveal deadline must not have passed\");\n\n        commitments[commitment_id].revealed_answer = answer;\n        commitments[commitment_id].is_revealed = true;\n\n        if (bond == questions[question_id].bond) {\n            _updateCurrentAnswer(question_id, answer);\n        }\n\n        emit LogAnswerReveal(question_id, msg.sender, answer_hash, answer, nonce, bond);\n\n    }\n\n    function _addAnswerToHistory(bytes32 question_id, bytes32 answer_or_commitment_id, address answerer, uint256 bond, bool is_commitment) \n    internal \n    {\n        bytes32 new_history_hash = keccak256(abi.encodePacked(questions[question_id].history_hash, answer_or_commitment_id, bond, answerer, is_commitment));\n\n        // Update the current bond level, if there's a bond (ie anything except arbitration)\n        if (bond > 0) {\n            questions[question_id].bond = bond;\n        }\n        questions[question_id].history_hash = new_history_hash;\n\n        emit LogNewAnswer(answer_or_commitment_id, question_id, new_history_hash, answerer, bond, now, is_commitment);\n    }\n\n    function _updateCurrentAnswer(bytes32 question_id, bytes32 answer)\n    internal {\n        questions[question_id].best_answer = answer;\n        questions[question_id].finalize_ts = uint32(now).add(questions[question_id].timeout);\n    }\n\n    function _updateCurrentAnswerByArbitrator(bytes32 question_id, bytes32 answer)\n    internal {\n        questions[question_id].best_answer = answer;\n        questions[question_id].finalize_ts = uint32(now);\n    }\n\n    /// @notice Notify the contract that the arbitrator has been paid for a question, freezing it pending their decision.\n    /// @dev The arbitrator contract is trusted to only call this if they've been paid, and tell us who paid them.\n    /// @param question_id The ID of the question\n    /// @param requester The account that requested arbitration\n    /// @param max_previous If specified, reverts if a bond higher than this was submitted after you sent your transaction.\n    function notifyOfArbitrationRequest(bytes32 question_id, address requester, uint256 max_previous) \n        onlyArbitrator(question_id)\n        stateOpen(question_id)\n        previousBondMustNotBeatMaxPrevious(question_id, max_previous)\n    external {\n        require(questions[question_id].bond > 0, \"Question must already have an answer when arbitration is requested\");\n        questions[question_id].is_pending_arbitration = true;\n        emit LogNotifyOfArbitrationRequest(question_id, requester);\n    }\n\n    /// @notice Cancel a previously-requested arbitration and extend the timeout\n    /// @dev Useful when doing arbitration across chains that can't be requested atomically\n    /// @param question_id The ID of the question\n    function cancelArbitration(bytes32 question_id)\n        onlyArbitrator(question_id)\n        statePendingArbitration(question_id)\n    external {\n        questions[question_id].is_pending_arbitration = false;\n        questions[question_id].finalize_ts = uint32(now).add(questions[question_id].timeout);\n        emit LogCancelArbitration(question_id);\n    }\n\n    /// @notice Submit the answer for a question, for use by the arbitrator.\n    /// @dev Doesn't require (or allow) a bond.\n    /// If the current final answer is correct, the account should be whoever submitted it.\n    /// If the current final answer is wrong, the account should be whoever paid for arbitration.\n    /// However, the answerer stipulations are not enforced by the contract.\n    /// @param question_id The ID of the question\n    /// @param answer The answer, encoded into bytes32\n    /// @param answerer The account credited with this answer for the purpose of bond claims\n    function submitAnswerByArbitrator(bytes32 question_id, bytes32 answer, address answerer) \n        onlyArbitrator(question_id)\n        statePendingArbitration(question_id)\n    public {\n\n        require(answerer != NULL_ADDRESS, \"answerer must be provided\");\n        emit LogFinalize(question_id, answer);\n\n        questions[question_id].is_pending_arbitration = false;\n        _addAnswerToHistory(question_id, answer, answerer, 0, false);\n        _updateCurrentAnswerByArbitrator(question_id, answer);\n    }\n\n    /// @notice Submit the answer for a question, for use by the arbitrator, working out the appropriate winner based on the last answer details.\n    /// @dev Doesn't require (or allow) a bond.\n    /// @param question_id The ID of the question\n    /// @param answer The answer, encoded into bytes32\n    /// @param payee_if_wrong The account to by credited as winner if the last answer given is wrong, usually the account that paid the arbitrator\n    /// @param last_history_hash The history hash before the final one\n    /// @param last_answer_or_commitment_id The last answer given, or the commitment ID if it was a commitment.\n    /// @param last_answerer The address that supplied the last answer\n    function assignWinnerAndSubmitAnswerByArbitrator(bytes32 question_id, bytes32 answer, address payee_if_wrong, bytes32 last_history_hash, bytes32 last_answer_or_commitment_id, address last_answerer)\n    external {\n        bool is_commitment = _verifyHistoryInputOrRevert(questions[question_id].history_hash, last_history_hash, last_answer_or_commitment_id, questions[question_id].bond, last_answerer);\n\n        address payee;\n        // If the last answer is an unrevealed commit, it's always wrong.\n        // For anything else, the last answer was set as the \"best answer\" in submitAnswer or submitAnswerReveal.\n        if (is_commitment && !commitments[last_answer_or_commitment_id].is_revealed) {\n            require(commitments[last_answer_or_commitment_id].reveal_ts < uint32(now), \"You must wait for the reveal deadline before finalizing\");\n            payee = payee_if_wrong;\n        } else {\n            payee = (questions[question_id].best_answer == answer) ? last_answerer : payee_if_wrong;\n        }\n        submitAnswerByArbitrator(question_id, answer, payee);\n    }\n\n    /// @notice Report whether the answer to the specified question is finalized\n    /// @param question_id The ID of the question\n    /// @return Return true if finalized\n    function isFinalized(bytes32 question_id) \n    view public returns (bool) {\n        uint32 finalize_ts = questions[question_id].finalize_ts;\n        return ( !questions[question_id].is_pending_arbitration && (finalize_ts > UNANSWERED) && (finalize_ts <= uint32(now)) );\n    }\n\n    /// @notice (Deprecated) Return the final answer to the specified question, or revert if there isn't one\n    /// @param question_id The ID of the question\n    /// @return The answer formatted as a bytes32\n    function getFinalAnswer(bytes32 question_id) \n        stateFinalized(question_id)\n    external view returns (bytes32) {\n        return questions[question_id].best_answer;\n    }\n\n    /// @notice Return the final answer to the specified question, or revert if there isn't one\n    /// @param question_id The ID of the question\n    /// @return The answer formatted as a bytes32\n    function resultFor(bytes32 question_id) \n        stateFinalized(question_id)\n    external view returns (bytes32) {\n        return questions[question_id].best_answer;\n    }\n\n    function _subtractClaimFee(bytes32 question_id, uint256 last_bond)\n    internal returns (uint256) {\n\n        address arbitrator = questions[question_id].arbitrator;\n        // Give the arbitrator a fraction of all bonds except the final one.\n        // This creates a cost to increasing your own bond, which could be used to delay resolution maliciously\n        if (last_bond != questions[question_id].bond) {\n            uint256 claim_fee = last_bond / BOND_CLAIM_FEE_PROPORTION;\n            last_bond = last_bond.sub(claim_fee);\n            balanceOf[arbitrator] = balanceOf[arbitrator].add(claim_fee);\n        }\n        return last_bond;\n\n    }\n\n    /// @notice Return the final answer to the specified question, provided it matches the specified criteria.\n    /// @dev Reverts if the question is not finalized, or if it does not match the specified criteria.\n    /// @param question_id The ID of the question\n    /// @param content_hash The hash of the question content (template ID + opening time + question parameter string)\n    /// @param arbitrator The arbitrator chosen for the question (regardless of whether they are asked to arbitrate)\n    /// @param min_timeout The timeout set in the initial question settings must be this high or higher\n    /// @param min_bond The bond sent with the final answer must be this high or higher\n    /// @return The answer formatted as a bytes32\n    function getFinalAnswerIfMatches(\n        bytes32 question_id, \n        bytes32 content_hash, address arbitrator, uint32 min_timeout, uint256 min_bond\n    ) \n        stateFinalized(question_id)\n    external view returns (bytes32) {\n        require(content_hash == questions[question_id].content_hash, \"content hash must match\");\n        require(arbitrator == questions[question_id].arbitrator, \"arbitrator must match\");\n        require(min_timeout <= questions[question_id].timeout, \"timeout must be long enough\");\n        require(min_bond <= questions[question_id].bond, \"bond must be high enough\");\n        return questions[question_id].best_answer;\n    }\n\n    /// @notice Assigns the winnings (bounty and bonds) to everyone who gave the accepted answer\n    /// Caller must provide the answer history, in reverse order\n    /// @dev Works up the chain and assign bonds to the person who gave the right answer\n    /// If someone gave the winning answer earlier, they must get paid from the higher bond\n    /// That means we can't pay out the bond added at n until we have looked at n-1\n    /// The first answer is authenticated by checking against the stored history_hash.\n    /// One of the inputs to history_hash is the history_hash before it, so we use that to authenticate the next entry, etc\n    /// Once we get to a null hash we'll know we're done and there are no more answers.\n    /// Usually you would call the whole thing in a single transaction, but if not then the data is persisted to pick up later.\n    /// @param question_id The ID of the question\n    /// @param history_hashes Second-last-to-first, the hash of each history entry. (Final one should be empty).\n    /// @param addrs Last-to-first, the address of each answerer or commitment sender\n    /// @param bonds Last-to-first, the bond supplied with each answer or commitment\n    /// @param answers Last-to-first, each answer supplied, or commitment ID if the answer was supplied with commit->reveal\n    function claimWinnings(\n        bytes32 question_id, \n        bytes32[] history_hashes, address[] addrs, uint256[] bonds, bytes32[] answers\n    ) \n        stateFinalized(question_id)\n    public {\n\n        require(history_hashes.length > 0, \"at least one history hash entry must be provided\");\n\n        // These are only set if we split our claim over multiple transactions.\n        address payee = question_claims[question_id].payee; \n        uint256 last_bond = question_claims[question_id].last_bond; \n        uint256 queued_funds = question_claims[question_id].queued_funds; \n\n        // Starts as the hash of the final answer submitted. It'll be cleared when we're done.\n        // If we're splitting the claim over multiple transactions, it'll be the hash where we left off last time\n        bytes32 last_history_hash = questions[question_id].history_hash;\n\n        bytes32 best_answer = questions[question_id].best_answer;\n\n        uint256 i;\n        for (i = 0; i < history_hashes.length; i++) {\n        \n            // Check input against the history hash, and see which of 2 possible values of is_commitment fits.\n            bool is_commitment = _verifyHistoryInputOrRevert(last_history_hash, history_hashes[i], answers[i], bonds[i], addrs[i]);\n            \n            queued_funds = queued_funds.add(last_bond); \n            (queued_funds, payee) = _processHistoryItem(\n                question_id, best_answer, queued_funds, payee, \n                addrs[i], bonds[i], answers[i], is_commitment);\n \n            // Line the bond up for next time, when it will be added to somebody's queued_funds\n            last_bond = _subtractClaimFee(question_id, bonds[i]);\n            last_history_hash = history_hashes[i];\n\n        }\n \n        if (last_history_hash != NULL_HASH) {\n            // We haven't yet got to the null hash (1st answer), ie the caller didn't supply the full answer chain.\n            // Persist the details so we can pick up later where we left off later.\n\n            // If we know who to pay we can go ahead and pay them out, only keeping back last_bond\n            // (We always know who to pay unless all we saw were unrevealed commits)\n            if (payee != NULL_ADDRESS) {\n                _payPayee(question_id, payee, queued_funds);\n                queued_funds = 0;\n            }\n\n            question_claims[question_id].payee = payee;\n            question_claims[question_id].last_bond = last_bond;\n            question_claims[question_id].queued_funds = queued_funds;\n        } else {\n            // There is nothing left below us so the payee can keep what remains\n            _payPayee(question_id, payee, queued_funds.add(last_bond));\n            delete question_claims[question_id];\n        }\n\n        questions[question_id].history_hash = last_history_hash;\n\n    }\n\n    function _payPayee(bytes32 question_id, address payee, uint256 value) \n    internal {\n        balanceOf[payee] = balanceOf[payee].add(value);\n        emit LogClaim(question_id, payee, value);\n    }\n\n    function _verifyHistoryInputOrRevert(\n        bytes32 last_history_hash,\n        bytes32 history_hash, bytes32 answer, uint256 bond, address addr\n    )\n    internal pure returns (bool) {\n        if (last_history_hash == keccak256(abi.encodePacked(history_hash, answer, bond, addr, true)) ) {\n            return true;\n        }\n        if (last_history_hash == keccak256(abi.encodePacked(history_hash, answer, bond, addr, false)) ) {\n            return false;\n        } \n        revert(\"History input provided did not match the expected hash\");\n    }\n\n    function _processHistoryItem(\n        bytes32 question_id, bytes32 best_answer, \n        uint256 queued_funds, address payee, \n        address addr, uint256 bond, bytes32 answer, bool is_commitment\n    )\n    internal returns (uint256, address) {\n\n        // For commit-and-reveal, the answer history holds the commitment ID instead of the answer.\n        // We look at the referenced commitment ID and switch in the actual answer.\n        if (is_commitment) {\n            bytes32 commitment_id = answer;\n            // If it's a commit but it hasn't been revealed, it will always be considered wrong.\n            if (!commitments[commitment_id].is_revealed) {\n                delete commitments[commitment_id];\n                return (queued_funds, payee);\n            } else {\n                answer = commitments[commitment_id].revealed_answer;\n                delete commitments[commitment_id];\n            }\n        }\n\n        if (answer == best_answer) {\n\n            if (payee == NULL_ADDRESS) {\n\n                // The entry is for the first payee we come to, ie the winner.\n                // They get the question bounty.\n                payee = addr;\n                queued_funds = queued_funds.add(questions[question_id].bounty);\n                questions[question_id].bounty = 0;\n\n            } else if (addr != payee) {\n\n                // Answerer has changed, ie we found someone lower down who needs to be paid\n\n                // The lower answerer will take over receiving bonds from higher answerer.\n                // They should also be paid the takeover fee, which is set at a rate equivalent to their bond. \n                // (This is our arbitrary rule, to give consistent right-answerers a defence against high-rollers.)\n\n                // There should be enough for the fee, but if not, take what we have.\n                // There's an edge case involving weird arbitrator behaviour where we may be short.\n                uint256 answer_takeover_fee = (queued_funds >= bond) ? bond : queued_funds;\n\n                // Settle up with the old (higher-bonded) payee\n                _payPayee(question_id, payee, queued_funds.sub(answer_takeover_fee));\n\n                // Now start queued_funds again for the new (lower-bonded) payee\n                payee = addr;\n                queued_funds = answer_takeover_fee;\n\n            }\n\n        }\n\n        return (queued_funds, payee);\n\n    }\n\n    /// @notice Convenience function to assign bounties/bonds for multiple questions in one go, then withdraw all your funds.\n    /// Caller must provide the answer history for each question, in reverse order\n    /// @dev Can be called by anyone to assign bonds/bounties, but funds are only withdrawn for the user making the call.\n    /// @param question_ids The IDs of the questions you want to claim for\n    /// @param lengths The number of history entries you will supply for each question ID\n    /// @param hist_hashes In a single list for all supplied questions, the hash of each history entry.\n    /// @param addrs In a single list for all supplied questions, the address of each answerer or commitment sender\n    /// @param bonds In a single list for all supplied questions, the bond supplied with each answer or commitment\n    /// @param answers In a single list for all supplied questions, each answer supplied, or commitment ID \n    function claimMultipleAndWithdrawBalance(\n        bytes32[] question_ids, uint256[] lengths, \n        bytes32[] hist_hashes, address[] addrs, uint256[] bonds, bytes32[] answers\n    ) \n        stateAny() // The finalization checks are done in the claimWinnings function\n    public {\n        \n        uint256 qi;\n        uint256 i;\n        for (qi = 0; qi < question_ids.length; qi++) {\n            bytes32 qid = question_ids[qi];\n            uint256 ln = lengths[qi];\n            bytes32[] memory hh = new bytes32[](ln);\n            address[] memory ad = new address[](ln);\n            uint256[] memory bo = new uint256[](ln);\n            bytes32[] memory an = new bytes32[](ln);\n            uint256 j;\n            for (j = 0; j < ln; j++) {\n                hh[j] = hist_hashes[i];\n                ad[j] = addrs[i];\n                bo[j] = bonds[i];\n                an[j] = answers[i];\n                i++;\n            }\n            claimWinnings(qid, hh, ad, bo, an);\n        }\n        withdraw();\n    }\n\n    /// @notice Returns the questions's content hash, identifying the question content\n    /// @param question_id The ID of the question \n    function getContentHash(bytes32 question_id) \n    public view returns(bytes32) {\n        return questions[question_id].content_hash;\n    }\n\n    /// @notice Returns the arbitrator address for the question\n    /// @param question_id The ID of the question \n    function getArbitrator(bytes32 question_id) \n    public view returns(address) {\n        return questions[question_id].arbitrator;\n    }\n\n    /// @notice Returns the timestamp when the question can first be answered\n    /// @param question_id The ID of the question \n    function getOpeningTS(bytes32 question_id) \n    public view returns(uint32) {\n        return questions[question_id].opening_ts;\n    }\n\n    /// @notice Returns the timeout in seconds used after each answer\n    /// @param question_id The ID of the question \n    function getTimeout(bytes32 question_id) \n    public view returns(uint32) {\n        return questions[question_id].timeout;\n    }\n\n    /// @notice Returns the timestamp at which the question will be/was finalized\n    /// @param question_id The ID of the question \n    function getFinalizeTS(bytes32 question_id) \n    public view returns(uint32) {\n        return questions[question_id].finalize_ts;\n    }\n\n    /// @notice Returns whether the question is pending arbitration\n    /// @param question_id The ID of the question \n    function isPendingArbitration(bytes32 question_id) \n    public view returns(bool) {\n        return questions[question_id].is_pending_arbitration;\n    }\n\n    /// @notice Returns the current total unclaimed bounty\n    /// @dev Set back to zero once the bounty has been claimed\n    /// @param question_id The ID of the question \n    function getBounty(bytes32 question_id) \n    public view returns(uint256) {\n        return questions[question_id].bounty;\n    }\n\n    /// @notice Returns the current best answer\n    /// @param question_id The ID of the question \n    function getBestAnswer(bytes32 question_id) \n    public view returns(bytes32) {\n        return questions[question_id].best_answer;\n    }\n\n    /// @notice Returns the history hash of the question \n    /// @param question_id The ID of the question \n    /// @dev Updated on each answer, then rewound as each is claimed\n    function getHistoryHash(bytes32 question_id) \n    public view returns(bytes32) {\n        return questions[question_id].history_hash;\n    }\n\n    /// @notice Returns the highest bond posted so far for a question\n    /// @param question_id The ID of the question \n    function getBond(bytes32 question_id) \n    public view returns(uint256) {\n        return questions[question_id].bond;\n    }\n\n}\n",
  "sourcePath": "/home/ed/working/realitio-contracts-2/truffle/contracts/RealitioERC20_v2_1.sol",
  "compiler": {
    "name": "solc",
    "version": "0.4.25+commit.59dbf8f1.Emscripten.clang",
    "optimizer": true,
    "runs": 200
  },
  "schemaVersion": "2.3.3",
  "updatedAt": "2021-03-31T02:34:09.904Z"
}